{
  "contractName": "ReleaseGold",
  "abi": [
    {
      "anonymous": false,
      "inputs": [
        {
          "indexed": true,
          "internalType": "address",
          "name": "beneficiary",
          "type": "address"
        }
      ],
      "name": "BeneficiarySet",
      "type": "event"
    },
    {
      "anonymous": false,
      "inputs": [
        {
          "indexed": false,
          "internalType": "bool",
          "name": "canExpire",
          "type": "bool"
        }
      ],
      "name": "CanExpireSet",
      "type": "event"
    },
    {
      "anonymous": false,
      "inputs": [
        {
          "indexed": true,
          "internalType": "address",
          "name": "beneficiary",
          "type": "address"
        },
        {
          "indexed": false,
          "internalType": "uint256",
          "name": "maxDistribution",
          "type": "uint256"
        }
      ],
      "name": "DistributionLimitSet",
      "type": "event"
    },
    {
      "anonymous": false,
      "inputs": [
        {
          "indexed": true,
          "internalType": "address",
          "name": "beneficiary",
          "type": "address"
        }
      ],
      "name": "LiquidityProvisionSet",
      "type": "event"
    },
    {
      "anonymous": false,
      "inputs": [
        {
          "indexed": true,
          "internalType": "address",
          "name": "previousOwner",
          "type": "address"
        },
        {
          "indexed": true,
          "internalType": "address",
          "name": "newOwner",
          "type": "address"
        }
      ],
      "name": "OwnershipTransferred",
      "type": "event"
    },
    {
      "anonymous": false,
      "inputs": [
        {
          "indexed": true,
          "internalType": "address",
          "name": "registryAddress",
          "type": "address"
        }
      ],
      "name": "RegistrySet",
      "type": "event"
    },
    {
      "anonymous": false,
      "inputs": [
        {
          "indexed": true,
          "internalType": "address",
          "name": "beneficiary",
          "type": "address"
        },
        {
          "indexed": true,
          "internalType": "address",
          "name": "atAddress",
          "type": "address"
        }
      ],
      "name": "ReleaseGoldInstanceCreated",
      "type": "event"
    },
    {
      "anonymous": false,
      "inputs": [
        {
          "indexed": true,
          "internalType": "address",
          "name": "beneficiary",
          "type": "address"
        },
        {
          "indexed": true,
          "internalType": "address",
          "name": "atAddress",
          "type": "address"
        }
      ],
      "name": "ReleaseGoldInstanceDestroyed",
      "type": "event"
    },
    {
      "anonymous": false,
      "inputs": [
        {
          "indexed": false,
          "internalType": "uint256",
          "name": "revokeTimestamp",
          "type": "uint256"
        },
        {
          "indexed": false,
          "internalType": "uint256",
          "name": "releasedBalanceAtRevoke",
          "type": "uint256"
        }
      ],
      "name": "ReleaseScheduleRevoked",
      "type": "event"
    },
    {
      "payable": true,
      "stateMutability": "payable",
      "type": "fallback"
    },
    {
      "constant": true,
      "inputs": [],
      "name": "EXPIRATION_TIME",
      "outputs": [
        {
          "internalType": "uint256",
          "name": "",
          "type": "uint256"
        }
      ],
      "payable": false,
      "stateMutability": "view",
      "type": "function"
    },
    {
      "constant": true,
      "inputs": [],
      "name": "beneficiary",
      "outputs": [
        {
          "internalType": "address payable",
          "name": "",
          "type": "address"
        }
      ],
      "payable": false,
      "stateMutability": "view",
      "type": "function"
    },
    {
      "constant": true,
      "inputs": [],
      "name": "canValidate",
      "outputs": [
        {
          "internalType": "bool",
          "name": "",
          "type": "bool"
        }
      ],
      "payable": false,
      "stateMutability": "view",
      "type": "function"
    },
    {
      "constant": true,
      "inputs": [],
      "name": "canVote",
      "outputs": [
        {
          "internalType": "bool",
          "name": "",
          "type": "bool"
        }
      ],
      "payable": false,
      "stateMutability": "view",
      "type": "function"
    },
    {
      "constant": true,
      "inputs": [],
      "name": "initialized",
      "outputs": [
        {
          "internalType": "bool",
          "name": "",
          "type": "bool"
        }
      ],
      "payable": false,
      "stateMutability": "view",
      "type": "function"
    },
    {
      "constant": true,
      "inputs": [],
      "name": "isOwner",
      "outputs": [
        {
          "internalType": "bool",
          "name": "",
          "type": "bool"
        }
      ],
      "payable": false,
      "stateMutability": "view",
      "type": "function"
    },
    {
      "constant": true,
      "inputs": [],
      "name": "liquidityProvisionMet",
      "outputs": [
        {
          "internalType": "bool",
          "name": "",
          "type": "bool"
        }
      ],
      "payable": false,
      "stateMutability": "view",
      "type": "function"
    },
    {
      "constant": true,
      "inputs": [],
      "name": "maxDistribution",
      "outputs": [
        {
          "internalType": "uint256",
          "name": "",
          "type": "uint256"
        }
      ],
      "payable": false,
      "stateMutability": "view",
      "type": "function"
    },
    {
      "constant": true,
      "inputs": [],
      "name": "owner",
      "outputs": [
        {
          "internalType": "address",
          "name": "",
          "type": "address"
        }
      ],
      "payable": false,
      "stateMutability": "view",
      "type": "function"
    },
    {
      "constant": true,
      "inputs": [],
      "name": "refundAddress",
      "outputs": [
        {
          "internalType": "address payable",
          "name": "",
          "type": "address"
        }
      ],
      "payable": false,
      "stateMutability": "view",
      "type": "function"
    },
    {
      "constant": true,
      "inputs": [],
      "name": "registry",
      "outputs": [
        {
          "internalType": "contract IRegistry",
          "name": "",
          "type": "address"
        }
      ],
      "payable": false,
      "stateMutability": "view",
      "type": "function"
    },
    {
      "constant": true,
      "inputs": [],
      "name": "releaseOwner",
      "outputs": [
        {
          "internalType": "address",
          "name": "",
          "type": "address"
        }
      ],
      "payable": false,
      "stateMutability": "view",
      "type": "function"
    },
    {
      "constant": true,
      "inputs": [],
      "name": "releaseSchedule",
      "outputs": [
        {
          "internalType": "uint256",
          "name": "releaseStartTime",
          "type": "uint256"
        },
        {
          "internalType": "uint256",
          "name": "releaseCliff",
          "type": "uint256"
        },
        {
          "internalType": "uint256",
          "name": "numReleasePeriods",
          "type": "uint256"
        },
        {
          "internalType": "uint256",
          "name": "releasePeriod",
          "type": "uint256"
        },
        {
          "internalType": "uint256",
          "name": "amountReleasedPerPeriod",
          "type": "uint256"
        }
      ],
      "payable": false,
      "stateMutability": "view",
      "type": "function"
    },
    {
      "constant": false,
      "inputs": [],
      "name": "renounceOwnership",
      "outputs": [],
      "payable": false,
      "stateMutability": "nonpayable",
      "type": "function"
    },
    {
      "constant": true,
      "inputs": [],
      "name": "revocationInfo",
      "outputs": [
        {
          "internalType": "bool",
          "name": "revocable",
          "type": "bool"
        },
        {
          "internalType": "bool",
          "name": "canExpire",
          "type": "bool"
        },
        {
          "internalType": "uint256",
          "name": "releasedBalanceAtRevoke",
          "type": "uint256"
        },
        {
          "internalType": "uint256",
          "name": "revokeTime",
          "type": "uint256"
        }
      ],
      "payable": false,
      "stateMutability": "view",
      "type": "function"
    },
    {
      "constant": false,
      "inputs": [
        {
          "internalType": "address",
          "name": "registryAddress",
          "type": "address"
        }
      ],
      "name": "setRegistry",
      "outputs": [],
      "payable": false,
      "stateMutability": "nonpayable",
      "type": "function"
    },
    {
      "constant": true,
      "inputs": [],
      "name": "totalWithdrawn",
      "outputs": [
        {
          "internalType": "uint256",
          "name": "",
          "type": "uint256"
        }
      ],
      "payable": false,
      "stateMutability": "view",
      "type": "function"
    },
    {
      "constant": false,
      "inputs": [
        {
          "internalType": "address",
          "name": "newOwner",
          "type": "address"
        }
      ],
      "name": "transferOwnership",
      "outputs": [],
      "payable": false,
      "stateMutability": "nonpayable",
      "type": "function"
    },
    {
      "constant": false,
      "inputs": [
        {
          "internalType": "address",
          "name": "to",
          "type": "address"
        },
        {
          "internalType": "uint256",
          "name": "value",
          "type": "uint256"
        }
      ],
      "name": "transfer",
      "outputs": [],
      "payable": false,
      "stateMutability": "nonpayable",
      "type": "function"
    },
    {
      "constant": false,
      "inputs": [
        {
          "internalType": "uint256",
          "name": "releaseStartTime",
          "type": "uint256"
        },
        {
          "internalType": "uint256",
          "name": "releaseCliffTime",
          "type": "uint256"
        },
        {
          "internalType": "uint256",
          "name": "numReleasePeriods",
          "type": "uint256"
        },
        {
          "internalType": "uint256",
          "name": "releasePeriod",
          "type": "uint256"
        },
        {
          "internalType": "uint256",
          "name": "amountReleasedPerPeriod",
          "type": "uint256"
        },
        {
          "internalType": "bool",
          "name": "revocable",
          "type": "bool"
        },
        {
          "internalType": "address payable",
          "name": "_beneficiary",
          "type": "address"
        },
        {
          "internalType": "address",
          "name": "_releaseOwner",
          "type": "address"
        },
        {
          "internalType": "address payable",
          "name": "_refundAddress",
          "type": "address"
        },
        {
          "internalType": "bool",
          "name": "subjectToLiquidityProvision",
          "type": "bool"
        },
        {
          "internalType": "uint256",
          "name": "initialDistributionRatio",
          "type": "uint256"
        },
        {
          "internalType": "bool",
          "name": "_canValidate",
          "type": "bool"
        },
        {
          "internalType": "bool",
          "name": "_canVote",
          "type": "bool"
        },
        {
          "internalType": "address",
          "name": "registryAddress",
          "type": "address"
        }
      ],
      "name": "initialize",
      "outputs": [],
      "payable": false,
      "stateMutability": "nonpayable",
      "type": "function"
    },
    {
      "constant": true,
      "inputs": [],
      "name": "isRevoked",
      "outputs": [
        {
          "internalType": "bool",
          "name": "",
          "type": "bool"
        }
      ],
      "payable": false,
      "stateMutability": "view",
      "type": "function"
    },
    {
      "constant": false,
      "inputs": [],
      "name": "setLiquidityProvision",
      "outputs": [],
      "payable": false,
      "stateMutability": "nonpayable",
      "type": "function"
    },
    {
      "constant": false,
      "inputs": [
        {
          "internalType": "bool",
          "name": "_canExpire",
          "type": "bool"
        }
      ],
      "name": "setCanExpire",
      "outputs": [],
      "payable": false,
      "stateMutability": "nonpayable",
      "type": "function"
    },
    {
      "constant": false,
      "inputs": [
        {
          "internalType": "uint256",
          "name": "distributionRatio",
          "type": "uint256"
        }
      ],
      "name": "setMaxDistribution",
      "outputs": [],
      "payable": false,
      "stateMutability": "nonpayable",
      "type": "function"
    },
    {
      "constant": false,
      "inputs": [
        {
          "internalType": "address payable",
          "name": "newBeneficiary",
          "type": "address"
        }
      ],
      "name": "setBeneficiary",
      "outputs": [],
      "payable": false,
      "stateMutability": "nonpayable",
      "type": "function"
    },
    {
      "constant": false,
      "inputs": [
        {
          "internalType": "uint256",
          "name": "amount",
          "type": "uint256"
        }
      ],
      "name": "withdraw",
      "outputs": [],
      "payable": false,
      "stateMutability": "nonpayable",
      "type": "function"
    },
    {
      "constant": false,
      "inputs": [],
      "name": "refundAndFinalize",
      "outputs": [],
      "payable": false,
      "stateMutability": "nonpayable",
      "type": "function"
    },
    {
      "constant": false,
      "inputs": [],
      "name": "revoke",
      "outputs": [],
      "payable": false,
      "stateMutability": "nonpayable",
      "type": "function"
    },
    {
      "constant": false,
      "inputs": [],
      "name": "expire",
      "outputs": [],
      "payable": false,
      "stateMutability": "nonpayable",
      "type": "function"
    },
    {
      "constant": true,
      "inputs": [],
      "name": "getTotalBalance",
      "outputs": [
        {
          "internalType": "uint256",
          "name": "",
          "type": "uint256"
        }
      ],
      "payable": false,
      "stateMutability": "view",
      "type": "function"
    },
    {
      "constant": true,
      "inputs": [],
      "name": "getRemainingTotalBalance",
      "outputs": [
        {
          "internalType": "uint256",
          "name": "",
          "type": "uint256"
        }
      ],
      "payable": false,
      "stateMutability": "view",
      "type": "function"
    },
    {
      "constant": true,
      "inputs": [],
      "name": "getRemainingUnlockedBalance",
      "outputs": [
        {
          "internalType": "uint256",
          "name": "",
          "type": "uint256"
        }
      ],
      "payable": false,
      "stateMutability": "view",
      "type": "function"
    },
    {
      "constant": true,
      "inputs": [],
      "name": "getRemainingLockedBalance",
      "outputs": [
        {
          "internalType": "uint256",
          "name": "",
          "type": "uint256"
        }
      ],
      "payable": false,
      "stateMutability": "view",
      "type": "function"
    },
    {
      "constant": true,
      "inputs": [],
      "name": "getCurrentReleasedTotalAmount",
      "outputs": [
        {
          "internalType": "uint256",
          "name": "",
          "type": "uint256"
        }
      ],
      "payable": false,
      "stateMutability": "view",
      "type": "function"
    },
    {
      "constant": false,
      "inputs": [
        {
          "internalType": "uint256",
          "name": "value",
          "type": "uint256"
        }
      ],
      "name": "lockGold",
      "outputs": [],
      "payable": false,
      "stateMutability": "nonpayable",
      "type": "function"
    },
    {
      "constant": false,
      "inputs": [
        {
          "internalType": "uint256",
          "name": "value",
          "type": "uint256"
        }
      ],
      "name": "unlockGold",
      "outputs": [],
      "payable": false,
      "stateMutability": "nonpayable",
      "type": "function"
    },
    {
      "constant": false,
      "inputs": [
        {
          "internalType": "uint256",
          "name": "index",
          "type": "uint256"
        },
        {
          "internalType": "uint256",
          "name": "value",
          "type": "uint256"
        }
      ],
      "name": "relockGold",
      "outputs": [],
      "payable": false,
      "stateMutability": "nonpayable",
      "type": "function"
    },
    {
      "constant": false,
      "inputs": [
        {
          "internalType": "uint256",
          "name": "index",
          "type": "uint256"
        }
      ],
      "name": "withdrawLockedGold",
      "outputs": [],
      "payable": false,
      "stateMutability": "nonpayable",
      "type": "function"
    },
    {
      "constant": false,
      "inputs": [
        {
          "internalType": "address payable",
          "name": "signer",
          "type": "address"
        },
        {
          "internalType": "uint8",
          "name": "v",
          "type": "uint8"
        },
        {
          "internalType": "bytes32",
          "name": "r",
          "type": "bytes32"
        },
        {
          "internalType": "bytes32",
          "name": "s",
          "type": "bytes32"
        }
      ],
      "name": "authorizeVoteSigner",
      "outputs": [],
      "payable": false,
      "stateMutability": "nonpayable",
      "type": "function"
    },
    {
      "constant": false,
      "inputs": [
        {
          "internalType": "address payable",
          "name": "signer",
          "type": "address"
        },
        {
          "internalType": "uint8",
          "name": "v",
          "type": "uint8"
        },
        {
          "internalType": "bytes32",
          "name": "r",
          "type": "bytes32"
        },
        {
          "internalType": "bytes32",
          "name": "s",
          "type": "bytes32"
        }
      ],
      "name": "authorizeValidatorSigner",
      "outputs": [],
      "payable": false,
      "stateMutability": "nonpayable",
      "type": "function"
    },
    {
      "constant": false,
      "inputs": [
        {
          "internalType": "address payable",
          "name": "signer",
          "type": "address"
        },
        {
          "internalType": "uint8",
          "name": "v",
          "type": "uint8"
        },
        {
          "internalType": "bytes32",
          "name": "r",
          "type": "bytes32"
        },
        {
          "internalType": "bytes32",
          "name": "s",
          "type": "bytes32"
        },
        {
          "internalType": "bytes",
          "name": "ecdsaPublicKey",
          "type": "bytes"
        }
      ],
      "name": "authorizeValidatorSignerWithPublicKey",
      "outputs": [],
      "payable": false,
      "stateMutability": "nonpayable",
      "type": "function"
    },
    {
      "constant": false,
      "inputs": [
        {
          "internalType": "address payable",
          "name": "signer",
          "type": "address"
        },
        {
          "internalType": "uint8",
          "name": "v",
          "type": "uint8"
        },
        {
          "internalType": "bytes32",
          "name": "r",
          "type": "bytes32"
        },
        {
          "internalType": "bytes32",
          "name": "s",
          "type": "bytes32"
        },
        {
          "internalType": "bytes",
          "name": "ecdsaPublicKey",
          "type": "bytes"
        },
        {
          "internalType": "bytes",
          "name": "blsPublicKey",
          "type": "bytes"
        },
        {
          "internalType": "bytes",
          "name": "blsPop",
          "type": "bytes"
        }
      ],
      "name": "authorizeValidatorSignerWithKeys",
      "outputs": [],
      "payable": false,
      "stateMutability": "nonpayable",
      "type": "function"
    },
    {
      "constant": false,
      "inputs": [
        {
          "internalType": "address payable",
          "name": "signer",
          "type": "address"
        },
        {
          "internalType": "uint8",
          "name": "v",
          "type": "uint8"
        },
        {
          "internalType": "bytes32",
          "name": "r",
          "type": "bytes32"
        },
        {
          "internalType": "bytes32",
          "name": "s",
          "type": "bytes32"
        }
      ],
      "name": "authorizeAttestationSigner",
      "outputs": [],
      "payable": false,
      "stateMutability": "nonpayable",
      "type": "function"
    },
    {
      "constant": false,
      "inputs": [
        {
          "internalType": "string",
          "name": "name",
          "type": "string"
        },
        {
          "internalType": "bytes",
          "name": "dataEncryptionKey",
          "type": "bytes"
        },
        {
          "internalType": "address",
          "name": "walletAddress",
          "type": "address"
        },
        {
          "internalType": "uint8",
          "name": "v",
          "type": "uint8"
        },
        {
          "internalType": "bytes32",
          "name": "r",
          "type": "bytes32"
        },
        {
          "internalType": "bytes32",
          "name": "s",
          "type": "bytes32"
        }
      ],
      "name": "setAccount",
      "outputs": [],
      "payable": false,
      "stateMutability": "nonpayable",
      "type": "function"
    },
    {
      "constant": false,
      "inputs": [],
      "name": "createAccount",
      "outputs": [],
      "payable": false,
      "stateMutability": "nonpayable",
      "type": "function"
    },
    {
      "constant": false,
      "inputs": [
        {
          "internalType": "string",
          "name": "name",
          "type": "string"
        }
      ],
      "name": "setAccountName",
      "outputs": [],
      "payable": false,
      "stateMutability": "nonpayable",
      "type": "function"
    },
    {
      "constant": false,
      "inputs": [
        {
          "internalType": "address",
          "name": "walletAddress",
          "type": "address"
        },
        {
          "internalType": "uint8",
          "name": "v",
          "type": "uint8"
        },
        {
          "internalType": "bytes32",
          "name": "r",
          "type": "bytes32"
        },
        {
          "internalType": "bytes32",
          "name": "s",
          "type": "bytes32"
        }
      ],
      "name": "setAccountWalletAddress",
      "outputs": [],
      "payable": false,
      "stateMutability": "nonpayable",
      "type": "function"
    },
    {
      "constant": false,
      "inputs": [
        {
          "internalType": "bytes",
          "name": "dataEncryptionKey",
          "type": "bytes"
        }
      ],
      "name": "setAccountDataEncryptionKey",
      "outputs": [],
      "payable": false,
      "stateMutability": "nonpayable",
      "type": "function"
    },
    {
      "constant": false,
      "inputs": [
        {
          "internalType": "string",
          "name": "metadataURL",
          "type": "string"
        }
      ],
      "name": "setAccountMetadataURL",
      "outputs": [],
      "payable": false,
      "stateMutability": "nonpayable",
      "type": "function"
    },
    {
      "constant": false,
      "inputs": [
        {
          "internalType": "address",
          "name": "group",
          "type": "address"
        },
        {
          "internalType": "uint256",
          "name": "value",
          "type": "uint256"
        },
        {
          "internalType": "address",
          "name": "lesser",
          "type": "address"
        },
        {
          "internalType": "address",
          "name": "greater",
          "type": "address"
        },
        {
          "internalType": "uint256",
          "name": "index",
          "type": "uint256"
        }
      ],
      "name": "revokeActive",
      "outputs": [],
      "payable": false,
      "stateMutability": "nonpayable",
      "type": "function"
    },
    {
      "constant": false,
      "inputs": [
        {
          "internalType": "address",
          "name": "group",
          "type": "address"
        },
        {
          "internalType": "uint256",
          "name": "value",
          "type": "uint256"
        },
        {
          "internalType": "address",
          "name": "lesser",
          "type": "address"
        },
        {
          "internalType": "address",
          "name": "greater",
          "type": "address"
        },
        {
          "internalType": "uint256",
          "name": "index",
          "type": "uint256"
        }
      ],
      "name": "revokePending",
      "outputs": [],
      "payable": false,
      "stateMutability": "nonpayable",
      "type": "function"
    }
  ],
  "bytecode": "0x6080604052600062000016620000c260201b60201c565b9050806000806101000a81548173ffffffffffffffffffffffffffffffffffffffff021916908373ffffffffffffffffffffffffffffffffffffffff1602179055508073ffffffffffffffffffffffffffffffffffffffff16600073ffffffffffffffffffffffffffffffffffffffff167f8be0079c531659141344cd1fd0a4f28419497f9722a3daafe3b4186f6b6457e060405160405180910390a3506001600281905550620000ca565b600033905090565b61763680620000da6000396000f3fe6080604052600436106102e45760003560e01c80636e19847511610190578063a9059cbb116100dc578063d048467711610095578063de82d8601161006f578063de82d86014611347578063df6f66301461135e578063f2fde38b14611399578063fc9f3ef0146113ea576102e4565b8063d04846771461127b578063d15ef2e6146112a6578063d69c246314611318576102e4565b8063a9059cbb146110ec578063a91ee0dc14611147578063b6549f7514611198578063baf7ef0f146111af578063beb28d7c14611221578063cf23c33a14611250576102e4565b806383d0aae91161014957806390b12b471161012357806390b12b4714610ecc578063969e83af14610fe85780639dca362f146110305780639dfb608114611047576102e4565b806383d0aae914610def5780638da5cb5b14610e465780638f32d59b14610e9d576102e4565b80636e19847514610bcd578063715018a614610c7257806376afa04c14610c8957806379599f9614610cfb5780637981b66414610d125780637b10399914610d98576102e4565b80631b3f3ac61161024f5780634282ee6d1161020857806352d2f864116101e257806352d2f86414610b0557806358aa72b014610b4057806368c7d70f14610b7b5780636db9b09014610bb6576102e4565b80634282ee6d14610a3d5780634a5c734814610aaf5780634b31971314610ada576102e4565b80631b3f3ac6146108685780631c31f710146108a55780632bc9ed02146108f65780632e1a7d4d146109255780632e95adad1461096057806338af3eed146109e6576102e4565b806312b58349116102a157806312b58349146106185780631465b92314610643578063158ef93e146107b4578063159e7064146107e35780631689eac714610812578063178f42e91461083d576102e4565b8063044e0ea2146102e6578063064a2e68146103115780630cb61f6c1461042f5780630d7c6e6e146104865780630fa750d2146104cb5780630fe7abab14610592575b005b3480156102f257600080fd5b506102fb611431565b6040518082815260200191505060405180910390f35b34801561031d57600080fd5b5061042d60048036036101c081101561033557600080fd5b810190808035906020019092919080359060200190929190803590602001909291908035906020019092919080359060200190929190803515159060200190929190803573ffffffffffffffffffffffffffffffffffffffff169060200190929190803573ffffffffffffffffffffffffffffffffffffffff169060200190929190803573ffffffffffffffffffffffffffffffffffffffff16906020019092919080351515906020019092919080359060200190929190803515159060200190929190803515159060200190929190803573ffffffffffffffffffffffffffffffffffffffff169060200190929190505050611437565b005b34801561043b57600080fd5b50610444611b36565b604051808273ffffffffffffffffffffffffffffffffffffffff1673ffffffffffffffffffffffffffffffffffffffff16815260200191505060405180910390f35b34801561049257600080fd5b506104c9600480360360408110156104a957600080fd5b810190808035906020019092919080359060200190929190505050611b5c565b005b3480156104d757600080fd5b50610590600480360360a08110156104ee57600080fd5b81019080803573ffffffffffffffffffffffffffffffffffffffff169060200190929190803560ff16906020019092919080359060200190929190803590602001909291908035906020019064010000000081111561054c57600080fd5b82018360208201111561055e57600080fd5b8035906020019184600183028401116401000000008311171561058057600080fd5b9091929391929390505050611d21565b005b34801561059e57600080fd5b50610616600480360360208110156105b557600080fd5b81019080803590602001906401000000008111156105d257600080fd5b8201836020820111156105e457600080fd5b8035906020019184600183028401116401000000008311171561060657600080fd5b9091929391929390505050612128565b005b34801561062457600080fd5b5061062d612281565b6040518082815260200191505060405180910390f35b34801561064f57600080fd5b506107b2600480360360e081101561066657600080fd5b81019080803573ffffffffffffffffffffffffffffffffffffffff169060200190929190803560ff1690602001909291908035906020019092919080359060200190929190803590602001906401000000008111156106c457600080fd5b8201836020820111156106d657600080fd5b803590602001918460018302840111640100000000831117156106f857600080fd5b90919293919293908035906020019064010000000081111561071957600080fd5b82018360208201111561072b57600080fd5b8035906020019184600183028401116401000000008311171561074d57600080fd5b90919293919293908035906020019064010000000081111561076e57600080fd5b82018360208201111561078057600080fd5b803590602001918460018302840111640100000000831117156107a257600080fd5b90919293919293905050506122bd565b005b3480156107c057600080fd5b506107c9612730565b604051808215151515815260200191505060405180910390f35b3480156107ef57600080fd5b506107f8612743565b604051808215151515815260200191505060405180910390f35b34801561081e57600080fd5b50610827612756565b6040518082815260200191505060405180910390f35b34801561084957600080fd5b50610852612840565b6040518082815260200191505060405180910390f35b34801561087457600080fd5b506108a36004803603602081101561088b57600080fd5b81019080803515159060200190929190505050612868565b005b3480156108b157600080fd5b506108f4600480360360208110156108c857600080fd5b81019080803573ffffffffffffffffffffffffffffffffffffffff1690602001909291905050506129ea565b005b34801561090257600080fd5b5061090b612a70565b604051808215151515815260200191505060405180910390f35b34801561093157600080fd5b5061095e6004803603602081101561094857600080fd5b8101908080359060200190929190505050612a7f565b005b34801561096c57600080fd5b506109e46004803603602081101561098357600080fd5b81019080803590602001906401000000008111156109a057600080fd5b8201836020820111156109b257600080fd5b803590602001918460018302840111640100000000831117156109d457600080fd5b9091929391929390505050612f07565b005b3480156109f257600080fd5b506109fb613060565b604051808273ffffffffffffffffffffffffffffffffffffffff1673ffffffffffffffffffffffffffffffffffffffff16815260200191505060405180910390f35b348015610a4957600080fd5b50610aad60048036036080811015610a6057600080fd5b81019080803573ffffffffffffffffffffffffffffffffffffffff169060200190929190803560ff1690602001909291908035906020019092919080359060200190929190505050613086565b005b348015610abb57600080fd5b50610ac4613457565b6040518082815260200191505060405180910390f35b348015610ae657600080fd5b50610aef61345f565b6040518082815260200191505060405180910390f35b348015610b1157600080fd5b50610b3e60048036036020811015610b2857600080fd5b8101908080359060200190929190505050613465565b005b348015610b4c57600080fd5b50610b7960048036036020811015610b6357600080fd5b8101908080359060200190929190505050613688565b005b348015610b8757600080fd5b50610bb460048036036020811015610b9e57600080fd5b810190808035906020019092919050505061383c565b005b348015610bc257600080fd5b50610bcb613a5f565b005b348015610bd957600080fd5b50610c70600480360360a0811015610bf057600080fd5b81019080803573ffffffffffffffffffffffffffffffffffffffff16906020019092919080359060200190929190803573ffffffffffffffffffffffffffffffffffffffff169060200190929190803573ffffffffffffffffffffffffffffffffffffffff16906020019092919080359060200190929190505050613bed565b005b348015610c7e57600080fd5b50610c87613edc565b005b348015610c9557600080fd5b50610cf960048036036080811015610cac57600080fd5b81019080803573ffffffffffffffffffffffffffffffffffffffff169060200190929190803560ff1690602001909291908035906020019092919080359060200190929190505050614015565b005b348015610d0757600080fd5b50610d106142ea565b005b348015610d1e57600080fd5b50610d9660048036036020811015610d3557600080fd5b8101908080359060200190640100000000811115610d5257600080fd5b820183602082011115610d6457600080fd5b80359060200191846001830284011164010000000083111715610d8657600080fd5b9091929391929390505050614609565b005b348015610da457600080fd5b50610dad614762565b604051808273ffffffffffffffffffffffffffffffffffffffff1673ffffffffffffffffffffffffffffffffffffffff16815260200191505060405180910390f35b348015610dfb57600080fd5b50610e04614788565b604051808273ffffffffffffffffffffffffffffffffffffffff1673ffffffffffffffffffffffffffffffffffffffff16815260200191505060405180910390f35b348015610e5257600080fd5b50610e5b6147ae565b604051808273ffffffffffffffffffffffffffffffffffffffff1673ffffffffffffffffffffffffffffffffffffffff16815260200191505060405180910390f35b348015610ea957600080fd5b50610eb26147d7565b604051808215151515815260200191505060405180910390f35b348015610ed857600080fd5b50610fe6600480360360c0811015610eef57600080fd5b8101908080359060200190640100000000811115610f0c57600080fd5b820183602082011115610f1e57600080fd5b80359060200191846001830284011164010000000083111715610f4057600080fd5b909192939192939080359060200190640100000000811115610f6157600080fd5b820183602082011115610f7357600080fd5b80359060200191846001830284011164010000000083111715610f9557600080fd5b9091929391929390803573ffffffffffffffffffffffffffffffffffffffff169060200190929190803560ff1690602001909291908035906020019092919080359060200190929190505050614835565b005b348015610ff457600080fd5b50610ffd614a1a565b60405180851515151581526020018415151515815260200183815260200182815260200194505050505060405180910390f35b34801561103c57600080fd5b50611045614a52565b005b34801561105357600080fd5b506110ea600480360360a081101561106a57600080fd5b81019080803573ffffffffffffffffffffffffffffffffffffffff16906020019092919080359060200190929190803573ffffffffffffffffffffffffffffffffffffffff169060200190929190803573ffffffffffffffffffffffffffffffffffffffff16906020019092919080359060200190929190505050614c6c565b005b3480156110f857600080fd5b506111456004803603604081101561110f57600080fd5b81019080803573ffffffffffffffffffffffffffffffffffffffff16906020019092919080359060200190929190505050614f5b565b005b34801561115357600080fd5b506111966004803603602081101561116a57600080fd5b81019080803573ffffffffffffffffffffffffffffffffffffffff169060200190929190505050615233565b005b3480156111a457600080fd5b506111ad6153d7565b005b3480156111bb57600080fd5b5061121f600480360360808110156111d257600080fd5b81019080803573ffffffffffffffffffffffffffffffffffffffff169060200190929190803560ff1690602001909291908035906020019092919080359060200190929190505050615639565b005b34801561122d57600080fd5b50611236615a0a565b604051808215151515815260200191505060405180910390f35b34801561125c57600080fd5b50611265615a1d565b6040518082815260200191505060405180910390f35b34801561128757600080fd5b50611290615c86565b6040518082815260200191505060405180910390f35b3480156112b257600080fd5b50611316600480360360808110156112c957600080fd5b81019080803573ffffffffffffffffffffffffffffffffffffffff169060200190929190803560ff1690602001909291908035906020019092919080359060200190929190505050615c8e565b005b34801561132457600080fd5b5061132d615e07565b604051808215151515815260200191505060405180910390f35b34801561135357600080fd5b5061135c615e1a565b005b34801561136a57600080fd5b506113976004803603602081101561138157600080fd5b8101908080359060200190929190505050616135565b005b3480156113a557600080fd5b506113e8600480360360208110156113bc57600080fd5b81019080803573ffffffffffffffffffffffffffffffffffffffff1690602001909291905050506163f0565b005b3480156113f657600080fd5b506113ff616476565b604051808681526020018581526020018481526020018381526020018281526020019550505050505060405180910390f35b60075481565b600360009054906101000a900460ff16156114ba576040517f08c379a000000000000000000000000000000000000000000000000000000000815260040180806020018281038252601c8152602001807f636f6e747261637420616c726561647920696e697469616c697a65640000000081525060200191505060405180910390fd5b6001600360006101000a81548160ff0219169083151502179055506114de3361649a565b8b600960020181905550896009600401819055508a60096003018190555061150f8d8f6165de90919063ffffffff16565b6009600101819055508d600960000181905550600860019054906101000a900460ff1615600e60000160016101000a81548160ff021916908315150217905550600160096002015410156115ae576040517f08c379a000000000000000000000000000000000000000000000000000000000815260040180806020018281038252602b81526020018061713c602b913960400191505060405180910390fd5b60006009600401541161160c576040517f08c379a00000000000000000000000000000000000000000000000000000000081526004018080602001828103825260388152602001806175ca6038913960400191505060405180910390fd5b600073ffffffffffffffffffffffffffffffffffffffff168873ffffffffffffffffffffffffffffffffffffffff161415611692576040517f08c379a000000000000000000000000000000000000000000000000000000000815260040180806020018281038252603c815260200180617215603c913960400191505060405180910390fd5b600073ffffffffffffffffffffffffffffffffffffffff168173ffffffffffffffffffffffffffffffffffffffff161415611718576040517f08c379a000000000000000000000000000000000000000000000000000000000815260040180806020018281038252602f8152602001806173e7602f913960400191505060405180910390fd5b61173560096002015460096004015461666690919063ffffffff16565b471461178c576040517f08c379a000000000000000000000000000000000000000000000000000000000815260040180806020018281038252603381526020018061728b6033913960400191505060405180910390fd5b8880156117965750825b156117ec576040517f08c379a00000000000000000000000000000000000000000000000000000000081526004018080602001828103825260238152602001806174df6023913960400191505060405180910390fd5b6103e8841115611847576040517f08c379a00000000000000000000000000000000000000000000000000000000081526004018080602001828103825260288152602001806173516028913960400191505060405180910390fd5b8880156118815750600073ffffffffffffffffffffffffffffffffffffffff168673ffffffffffffffffffffffffffffffffffffffff1614155b806118c25750881580156118c15750600073ffffffffffffffffffffffffffffffffffffffff168673ffffffffffffffffffffffffffffffffffffffff16145b5b611917576040517f08c379a000000000000000000000000000000000000000000000000000000000815260040180806020018281038252603b815260200180616fdd603b913960400191505060405180910390fd5b61192081615233565b611929886166ec565b88600e60000160006101000a81548160ff02191690831515021790555086600460006101000a81548173ffffffffffffffffffffffffffffffffffffffff021916908373ffffffffffffffffffffffffffffffffffffffff16021790555085600560006101000a81548173ffffffffffffffffffffffffffffffffffffffff021916908373ffffffffffffffffffffffffffffffffffffffff1602179055506103e8841015611a265760006119f160096002015460096004015461666690919063ffffffff16565b9050611a1a6103e8611a0c878461666690919063ffffffff16565b6167f990919063ffffffff16565b60078190555050611a4e565b7fffffffffffffffffffffffffffffffffffffffffffffffffffffffffffffffff6007819055505b84611a5a576001611a5d565b60005b600860006101000a81548160ff02191690831515021790555082600860016101000a81548160ff02191690831515021790555081600860026101000a81548160ff0219169083151502179055503073ffffffffffffffffffffffffffffffffffffffff16600360019054906101000a900473ffffffffffffffffffffffffffffffffffffffff1673ffffffffffffffffffffffffffffffffffffffff167f0dcf2df6e6ef000384771a1b2a8f9c2872b94e86df3afb0703d68d79a820eef560405160405180910390a35050505050505050505050505050565b600560009054906101000a900473ffffffffffffffffffffffffffffffffffffffff1681565b600160026000828254019250508190555060006002549050600360019054906101000a900473ffffffffffffffffffffffffffffffffffffffff1673ffffffffffffffffffffffffffffffffffffffff163373ffffffffffffffffffffffffffffffffffffffff16148015611bd65750611bd4612a70565b155b611c2b576040517f08c379a000000000000000000000000000000000000000000000000000000000815260040180806020018281038252603c815260200180617100603c913960400191505060405180910390fd5b611c33616843565b73ffffffffffffffffffffffffffffffffffffffff1663b2fb30cb84846040518363ffffffff1660e01b81526004018083815260200182815260200192505050600060405180830381600087803b158015611c8d57600080fd5b505af1158015611ca1573d6000803e3d6000fd5b505050506002548114611d1c576040517f08c379a000000000000000000000000000000000000000000000000000000000815260040180806020018281038252600e8152602001807f7265656e7472616e742063616c6c00000000000000000000000000000000000081525060200191505060405180910390fd5b505050565b600160026000828254019250508190555060006002549050600860019054906101000a900460ff16611d9e576040517f08c379a000000000000000000000000000000000000000000000000000000000815260040180806020018281038252603a815260200180617470603a913960400191505060405180910390fd5b6000611da8612a70565b9050600460009054906101000a900473ffffffffffffffffffffffffffffffffffffffff1673ffffffffffffffffffffffffffffffffffffffff163373ffffffffffffffffffffffffffffffffffffffff16148015611e045750805b80611e665750600360019054906101000a900473ffffffffffffffffffffffffffffffffffffffff1673ffffffffffffffffffffffffffffffffffffffff163373ffffffffffffffffffffffffffffffffffffffff16148015611e65575080155b5b611ebb576040517f08c379a000000000000000000000000000000000000000000000000000000000815260040180806020018281038252604c815260200180617525604c913960600191505060405180910390fd5b3073ffffffffffffffffffffffffffffffffffffffff16611eda61693e565b73ffffffffffffffffffffffffffffffffffffffff16634ce38b5f306040518263ffffffff1660e01b8152600401808273ffffffffffffffffffffffffffffffffffffffff1673ffffffffffffffffffffffffffffffffffffffff16815260200191505060206040518083038186803b158015611f5657600080fd5b505afa158015611f6a573d6000803e3d6000fd5b505050506040513d6020811015611f8057600080fd5b810190808051906020019092919050505073ffffffffffffffffffffffffffffffffffffffff161415611fb757611fb688616a39565b5b611fbf61693e565b73ffffffffffffffffffffffffffffffffffffffff16630fa750d28989898989896040518763ffffffff1660e01b8152600401808773ffffffffffffffffffffffffffffffffffffffff1673ffffffffffffffffffffffffffffffffffffffff1681526020018660ff1660ff168152602001858152602001848152602001806020018281038252848482818152602001925080828437600081840152601f19601f820116905080830192505050975050505050505050600060405180830381600087803b15801561208f57600080fd5b505af11580156120a3573d6000803e3d6000fd5b5050505050600254811461211f576040517f08c379a000000000000000000000000000000000000000000000000000000000815260040180806020018281038252600e8152602001807f7265656e7472616e742063616c6c00000000000000000000000000000000000081525060200191505060405180910390fd5b50505050505050565b600360019054906101000a900473ffffffffffffffffffffffffffffffffffffffff1673ffffffffffffffffffffffffffffffffffffffff163373ffffffffffffffffffffffffffffffffffffffff1614801561218a5750612188612a70565b155b6121df576040517f08c379a000000000000000000000000000000000000000000000000000000000815260040180806020018281038252603c815260200180617100603c913960400191505060405180910390fd5b6121e761693e565b73ffffffffffffffffffffffffffffffffffffffff16630fe7abab83836040518363ffffffff1660e01b815260040180806020018281038252848482818152602001925080828437600081840152601f19601f8201169050808301925050509350505050600060405180830381600087803b15801561226557600080fd5b505af1158015612279573d6000803e3d6000fd5b505050505050565b60006122b86006546122aa612294615a1d565b61229c615c86565b6165de90919063ffffffff16565b6165de90919063ffffffff16565b905090565b600160026000828254019250508190555060006002549050600860019054906101000a900460ff1661233a576040517f08c379a000000000000000000000000000000000000000000000000000000000815260040180806020018281038252603a815260200180617470603a913960400191505060405180910390fd5b6000612344612a70565b9050600460009054906101000a900473ffffffffffffffffffffffffffffffffffffffff1673ffffffffffffffffffffffffffffffffffffffff163373ffffffffffffffffffffffffffffffffffffffff161480156123a05750805b806124025750600360019054906101000a900473ffffffffffffffffffffffffffffffffffffffff1673ffffffffffffffffffffffffffffffffffffffff163373ffffffffffffffffffffffffffffffffffffffff16148015612401575080155b5b612457576040517f08c379a000000000000000000000000000000000000000000000000000000000815260040180806020018281038252604c815260200180617525604c913960600191505060405180910390fd5b3073ffffffffffffffffffffffffffffffffffffffff1661247661693e565b73ffffffffffffffffffffffffffffffffffffffff16634ce38b5f306040518263ffffffff1660e01b8152600401808273ffffffffffffffffffffffffffffffffffffffff1673ffffffffffffffffffffffffffffffffffffffff16815260200191505060206040518083038186803b1580156124f257600080fd5b505afa158015612506573d6000803e3d6000fd5b505050506040513d602081101561251c57600080fd5b810190808051906020019092919050505073ffffffffffffffffffffffffffffffffffffffff161415612553576125528c616a39565b5b61255b61693e565b73ffffffffffffffffffffffffffffffffffffffff16631465b9238d8d8d8d8d8d8d8d8d8d6040518b63ffffffff1660e01b8152600401808b73ffffffffffffffffffffffffffffffffffffffff1673ffffffffffffffffffffffffffffffffffffffff1681526020018a60ff1660ff16815260200189815260200188815260200180602001806020018060200184810384528a8a82818152602001925080828437600081840152601f19601f8201169050808301925050508481038352888882818152602001925080828437600081840152601f19601f8201169050808301925050508481038252868682818152602001925080828437600081840152601f19601f8201169050808301925050509d5050505050505050505050505050600060405180830381600087803b15801561269357600080fd5b505af11580156126a7573d6000803e3d6000fd5b50505050506002548114612723576040517f08c379a000000000000000000000000000000000000000000000000000000000815260040180806020018281038252600e8152602001807f7265656e7472616e742063616c6c00000000000000000000000000000000000081525060200191505060405180910390fd5b5050505050505050505050565b600360009054906101000a900460ff1681565b600860029054906101000a900460ff1681565b60006009600101544210806127785750600860009054906101000a900460ff16155b15612786576000905061283d565b6000612790612281565b90506127c66127b260096003015460096002015461666690919063ffffffff16565b6009600001546165de90919063ffffffff16565b42106127d5578091505061283d565b60006127ef60096000015442616b6690919063ffffffff16565b9050600061280b600960030154836167f990919063ffffffff16565b9050612837600960020154612829838661666690919063ffffffff16565b6167f990919063ffffffff16565b93505050505b90565b600061286361284d615a1d565b612855615c86565b6165de90919063ffffffff16565b905090565b600360019054906101000a900473ffffffffffffffffffffffffffffffffffffffff1673ffffffffffffffffffffffffffffffffffffffff163373ffffffffffffffffffffffffffffffffffffffff161461290e576040517f08c379a00000000000000000000000000000000000000000000000000000000081526004018080602001828103825260318152602001806175716031913960400191505060405180910390fd5b801515600e60000160019054906101000a900460ff161515141561297d576040517f08c379a000000000000000000000000000000000000000000000000000000000815260040180806020018281038252602f81526020018061704a602f913960400191505060405180910390fd5b80600e60000160016101000a81548160ff0219169083151502179055507fcc86d6c701b54780681be776baa19da4895cf2feaef7cb81b7b4b4b512949ce3600e60000160019054906101000a900460ff16604051808215151515815260200191505060405180910390a150565b6129f26147d7565b612a64576040517f08c379a00000000000000000000000000000000000000000000000000000000081526004018080602001828103825260208152602001807f4f776e61626c653a2063616c6c6572206973206e6f7420746865206f776e657281525060200191505060405180910390fd5b612a6d816166ec565b50565b600080600e6002015411905090565b600160026000828254019250508190555060006002549050600360019054906101000a900473ffffffffffffffffffffffffffffffffffffffff1673ffffffffffffffffffffffffffffffffffffffff163373ffffffffffffffffffffffffffffffffffffffff1614612b3d576040517f08c379a00000000000000000000000000000000000000000000000000000000081526004018080602001828103825260318152602001806175716031913960400191505060405180910390fd5b60008211612b96576040517f08c379a00000000000000000000000000000000000000000000000000000000081526004018080602001828103825260358152602001806174aa6035913960400191505060405180910390fd5b600860009054906101000a900460ff16612bfb576040517f08c379a00000000000000000000000000000000000000000000000000000000081526004018080602001828103825260368152602001806170a46036913960400191505060405180910390fd5b6000612c05612a70565b15612c1757600e600101549050612c22565b612c1f612756565b90505b82612c3860065483616b6690919063ffffffff16565b1015612c8f576040517f08c379a00000000000000000000000000000000000000000000000000000000081526004018080602001828103825260398152602001806173796039913960400191505060405180910390fd5b612ca4836006546165de90919063ffffffff16565b6007541015612cfe576040517f08c379a000000000000000000000000000000000000000000000000000000000815260040180806020018281038252603d8152602001806171d8603d913960400191505060405180910390fd5b82612d07615c86565b1015612d5e576040517f08c379a00000000000000000000000000000000000000000000000000000000081526004018080602001828103825260308152602001806172eb6030913960400191505060405180910390fd5b612d73836006546165de90919063ffffffff16565b600681905550612dc483600360019054906101000a900473ffffffffffffffffffffffffffffffffffffffff1673ffffffffffffffffffffffffffffffffffffffff16616bb090919063ffffffff16565b6000612dce612840565b1415612e8b573073ffffffffffffffffffffffffffffffffffffffff16600360019054906101000a900473ffffffffffffffffffffffffffffffffffffffff1673ffffffffffffffffffffffffffffffffffffffff167f6a394f457aa81997bcda400fd5c309a1349f3a3233527e5e6c495be7b63c5bb060405160405180910390a3600560009054906101000a900473ffffffffffffffffffffffffffffffffffffffff1673ffffffffffffffffffffffffffffffffffffffff16ff5b506002548114612f03576040517f08c379a000000000000000000000000000000000000000000000000000000000815260040180806020018281038252600e8152602001807f7265656e7472616e742063616c6c00000000000000000000000000000000000081525060200191505060405180910390fd5b5050565b600360019054906101000a900473ffffffffffffffffffffffffffffffffffffffff1673ffffffffffffffffffffffffffffffffffffffff163373ffffffffffffffffffffffffffffffffffffffff16148015612f695750612f67612a70565b155b612fbe576040517f08c379a000000000000000000000000000000000000000000000000000000000815260040180806020018281038252603c815260200180617100603c913960400191505060405180910390fd5b612fc661693e565b73ffffffffffffffffffffffffffffffffffffffff1663c47f002783836040518363ffffffff1660e01b815260040180806020018281038252848482818152602001925080828437600081840152601f19601f8201169050808301925050509350505050600060405180830381600087803b15801561304457600080fd5b505af1158015613058573d6000803e3d6000fd5b505050505050565b600360019054906101000a900473ffffffffffffffffffffffffffffffffffffffff1681565b600160026000828254019250508190555060006002549050600860029054906101000a900460ff16613103576040517f08c379a000000000000000000000000000000000000000000000000000000000815260040180806020018281038252603681526020018061731b6036913960400191505060405180910390fd5b600061310d612a70565b9050600460009054906101000a900473ffffffffffffffffffffffffffffffffffffffff1673ffffffffffffffffffffffffffffffffffffffff163373ffffffffffffffffffffffffffffffffffffffff161480156131695750805b806131cb5750600360019054906101000a900473ffffffffffffffffffffffffffffffffffffffff1673ffffffffffffffffffffffffffffffffffffffff163373ffffffffffffffffffffffffffffffffffffffff161480156131ca575080155b5b613220576040517f08c379a000000000000000000000000000000000000000000000000000000000815260040180806020018281038252604c815260200180617525604c913960600191505060405180910390fd5b3073ffffffffffffffffffffffffffffffffffffffff1661323f61693e565b73ffffffffffffffffffffffffffffffffffffffff166341ddd880306040518263ffffffff1660e01b8152600401808273ffffffffffffffffffffffffffffffffffffffff1673ffffffffffffffffffffffffffffffffffffffff16815260200191505060206040518083038186803b1580156132bb57600080fd5b505afa1580156132cf573d6000803e3d6000fd5b505050506040513d60208110156132e557600080fd5b810190808051906020019092919050505073ffffffffffffffffffffffffffffffffffffffff16141561331c5761331b86616a39565b5b61332461693e565b73ffffffffffffffffffffffffffffffffffffffff16634282ee6d878787876040518563ffffffff1660e01b8152600401808573ffffffffffffffffffffffffffffffffffffffff1673ffffffffffffffffffffffffffffffffffffffff1681526020018460ff1660ff168152602001838152602001828152602001945050505050600060405180830381600087803b1580156133c057600080fd5b505af11580156133d4573d6000803e3d6000fd5b50505050506002548114613450576040517f08c379a000000000000000000000000000000000000000000000000000000000815260040180806020018281038252600e8152602001807f7265656e7472616e742063616c6c00000000000000000000000000000000000081525060200191505060405180910390fd5b5050505050565b6303c2670081565b60065481565b6001600260008282540192505081905550600060025490506000613487612a70565b9050600460009054906101000a900473ffffffffffffffffffffffffffffffffffffffff1673ffffffffffffffffffffffffffffffffffffffff163373ffffffffffffffffffffffffffffffffffffffff161480156134e35750805b806135455750600360019054906101000a900473ffffffffffffffffffffffffffffffffffffffff1673ffffffffffffffffffffffffffffffffffffffff163373ffffffffffffffffffffffffffffffffffffffff16148015613544575080155b5b61359a576040517f08c379a000000000000000000000000000000000000000000000000000000000815260040180806020018281038252604c815260200180617525604c913960600191505060405180910390fd5b6135a2616843565b73ffffffffffffffffffffffffffffffffffffffff16632e1a7d4d846040518263ffffffff1660e01b815260040180828152602001915050600060405180830381600087803b1580156135f457600080fd5b505af1158015613608573d6000803e3d6000fd5b50505050506002548114613684576040517f08c379a000000000000000000000000000000000000000000000000000000000815260040180806020018281038252600e8152602001807f7265656e7472616e742063616c6c00000000000000000000000000000000000081525060200191505060405180910390fd5b5050565b600160026000828254019250508190555060006002549050600360019054906101000a900473ffffffffffffffffffffffffffffffffffffffff1673ffffffffffffffffffffffffffffffffffffffff163373ffffffffffffffffffffffffffffffffffffffff161480156137025750613700612a70565b155b613757576040517f08c379a000000000000000000000000000000000000000000000000000000000815260040180806020018281038252603c815260200180617100603c913960400191505060405180910390fd5b61375f616843565b73ffffffffffffffffffffffffffffffffffffffff1663f83d08ba5a846040518363ffffffff1660e01b81526004016000604051808303818589803b1580156137a757600080fd5b5088f11580156137bb573d6000803e3d6000fd5b5050505050506002548114613838576040517f08c379a000000000000000000000000000000000000000000000000000000000815260040180806020018281038252600e8152602001807f7265656e7472616e742063616c6c00000000000000000000000000000000000081525060200191505060405180910390fd5b5050565b600160026000828254019250508190555060006002549050600061385e612a70565b9050600460009054906101000a900473ffffffffffffffffffffffffffffffffffffffff1673ffffffffffffffffffffffffffffffffffffffff163373ffffffffffffffffffffffffffffffffffffffff161480156138ba5750805b8061391c5750600360019054906101000a900473ffffffffffffffffffffffffffffffffffffffff1673ffffffffffffffffffffffffffffffffffffffff163373ffffffffffffffffffffffffffffffffffffffff1614801561391b575080155b5b613971576040517f08c379a000000000000000000000000000000000000000000000000000000000815260040180806020018281038252604c815260200180617525604c913960600191505060405180910390fd5b613979616843565b73ffffffffffffffffffffffffffffffffffffffff16636198e339846040518263ffffffff1660e01b815260040180828152602001915050600060405180830381600087803b1580156139cb57600080fd5b505af11580156139df573d6000803e3d6000fd5b50505050506002548114613a5b576040517f08c379a000000000000000000000000000000000000000000000000000000000815260040180806020018281038252600e8152602001807f7265656e7472616e742063616c6c00000000000000000000000000000000000081525060200191505060405180910390fd5b5050565b600460009054906101000a900473ffffffffffffffffffffffffffffffffffffffff1673ffffffffffffffffffffffffffffffffffffffff163373ffffffffffffffffffffffffffffffffffffffff1614613b05576040517f08c379a00000000000000000000000000000000000000000000000000000000081526004018080602001828103825260328152602001806170186032913960400191505060405180910390fd5b600860009054906101000a900460ff1615613b6b576040517f08c379a00000000000000000000000000000000000000000000000000000000081526004018080602001828103825260288152602001806175a26028913960400191505060405180910390fd5b6001600860006101000a81548160ff021916908315150217905550600360019054906101000a900473ffffffffffffffffffffffffffffffffffffffff1673ffffffffffffffffffffffffffffffffffffffff167f261df30ebbe3cd6d1f12a020dddf136c254764125eb7cfd51ca12a692f95c34360405160405180910390a2565b6001600260008282540192505081905550600060025490506000613c0f612a70565b9050600460009054906101000a900473ffffffffffffffffffffffffffffffffffffffff1673ffffffffffffffffffffffffffffffffffffffff163373ffffffffffffffffffffffffffffffffffffffff16148015613c6b5750805b80613ccd5750600360019054906101000a900473ffffffffffffffffffffffffffffffffffffffff1673ffffffffffffffffffffffffffffffffffffffff163373ffffffffffffffffffffffffffffffffffffffff16148015613ccc575080155b5b613d22576040517f08c379a000000000000000000000000000000000000000000000000000000000815260040180806020018281038252604c815260200180617525604c913960600191505060405180910390fd5b613d2a616cea565b73ffffffffffffffffffffffffffffffffffffffff16636e19847588888888886040518663ffffffff1660e01b8152600401808673ffffffffffffffffffffffffffffffffffffffff1673ffffffffffffffffffffffffffffffffffffffff1681526020018581526020018473ffffffffffffffffffffffffffffffffffffffff1673ffffffffffffffffffffffffffffffffffffffff1681526020018373ffffffffffffffffffffffffffffffffffffffff1673ffffffffffffffffffffffffffffffffffffffff16815260200182815260200195505050505050602060405180830381600087803b158015613e2057600080fd5b505af1158015613e34573d6000803e3d6000fd5b505050506040513d6020811015613e4a57600080fd5b810190808051906020019092919050505050506002548114613ed4576040517f08c379a000000000000000000000000000000000000000000000000000000000815260040180806020018281038252600e8152602001807f7265656e7472616e742063616c6c00000000000000000000000000000000000081525060200191505060405180910390fd5b505050505050565b613ee46147d7565b613f56576040517f08c379a00000000000000000000000000000000000000000000000000000000081526004018080602001828103825260208152602001807f4f776e61626c653a2063616c6c6572206973206e6f7420746865206f776e657281525060200191505060405180910390fd5b600073ffffffffffffffffffffffffffffffffffffffff166000809054906101000a900473ffffffffffffffffffffffffffffffffffffffff1673ffffffffffffffffffffffffffffffffffffffff167f8be0079c531659141344cd1fd0a4f28419497f9722a3daafe3b4186f6b6457e060405160405180910390a360008060006101000a81548173ffffffffffffffffffffffffffffffffffffffff021916908373ffffffffffffffffffffffffffffffffffffffff160217905550565b600160026000828254019250508190555060006002549050600860019054906101000a900460ff16614092576040517f08c379a000000000000000000000000000000000000000000000000000000000815260040180806020018281038252603a815260200180617470603a913960400191505060405180910390fd5b600061409c612a70565b9050600460009054906101000a900473ffffffffffffffffffffffffffffffffffffffff1673ffffffffffffffffffffffffffffffffffffffff163373ffffffffffffffffffffffffffffffffffffffff161480156140f85750805b8061415a5750600360019054906101000a900473ffffffffffffffffffffffffffffffffffffffff1673ffffffffffffffffffffffffffffffffffffffff163373ffffffffffffffffffffffffffffffffffffffff16148015614159575080155b5b6141af576040517f08c379a000000000000000000000000000000000000000000000000000000000815260040180806020018281038252604c815260200180617525604c913960600191505060405180910390fd5b6141b761693e565b73ffffffffffffffffffffffffffffffffffffffff166376afa04c878787876040518563ffffffff1660e01b8152600401808573ffffffffffffffffffffffffffffffffffffffff1673ffffffffffffffffffffffffffffffffffffffff1681526020018460ff1660ff168152602001838152602001828152602001945050505050600060405180830381600087803b15801561425357600080fd5b505af1158015614267573d6000803e3d6000fd5b505050505060025481146142e3576040517f08c379a000000000000000000000000000000000000000000000000000000000815260040180806020018281038252600e8152602001807f7265656e7472616e742063616c6c00000000000000000000000000000000000081525060200191505060405180910390fd5b5050505050565b600160026000828254019250508190555060006002549050600460009054906101000a900473ffffffffffffffffffffffffffffffffffffffff1673ffffffffffffffffffffffffffffffffffffffff163373ffffffffffffffffffffffffffffffffffffffff16146143a8576040517f08c379a00000000000000000000000000000000000000000000000000000000081526004018080602001828103825260328152602001806170186032913960400191505060405180910390fd5b600e60000160019054906101000a900460ff1661442d576040517f08c379a000000000000000000000000000000000000000000000000000000000815260040180806020018281038252601a8152602001807f436f6e7472616374206d75737420626520657870697261626c6500000000000081525060200191505060405180910390fd5b600061446361444f60096003015460096002015461666690919063ffffffff16565b6009600001546165de90919063ffffffff16565b905061447c6303c26700826165de90919063ffffffff16565b4210156144d4576040517f08c379a000000000000000000000000000000000000000000000000000000000815260040180806020018281038252603d815260200180616fa0603d913960400191505060405180910390fd5b6144dc612a70565b15614532576040517f08c379a00000000000000000000000000000000000000000000000000000000081526004018080602001828103825260358152602001806173b26035913960400191505060405180910390fd5b42600e60020181905550600654600e600101819055507fbe8cff0b1980fe3ca968bf08dddc227b238e8398c0fa79445471303c981bc4c2600e60020154600654604051808381526020018281526020019250505060405180910390a1506002548114614606576040517f08c379a000000000000000000000000000000000000000000000000000000000815260040180806020018281038252600e8152602001807f7265656e7472616e742063616c6c00000000000000000000000000000000000081525060200191505060405180910390fd5b50565b600360019054906101000a900473ffffffffffffffffffffffffffffffffffffffff1673ffffffffffffffffffffffffffffffffffffffff163373ffffffffffffffffffffffffffffffffffffffff1614801561466b5750614669612a70565b155b6146c0576040517f08c379a000000000000000000000000000000000000000000000000000000000815260040180806020018281038252603c815260200180617100603c913960400191505060405180910390fd5b6146c861693e565b73ffffffffffffffffffffffffffffffffffffffff1663747daec583836040518363ffffffff1660e01b815260040180806020018281038252848482818152602001925080828437600081840152601f19601f8201169050808301925050509350505050600060405180830381600087803b15801561474657600080fd5b505af115801561475a573d6000803e3d6000fd5b505050505050565b600160009054906101000a900473ffffffffffffffffffffffffffffffffffffffff1681565b600460009054906101000a900473ffffffffffffffffffffffffffffffffffffffff1681565b60008060009054906101000a900473ffffffffffffffffffffffffffffffffffffffff16905090565b60008060009054906101000a900473ffffffffffffffffffffffffffffffffffffffff1673ffffffffffffffffffffffffffffffffffffffff16614819616de5565b73ffffffffffffffffffffffffffffffffffffffff1614905090565b600360019054906101000a900473ffffffffffffffffffffffffffffffffffffffff1673ffffffffffffffffffffffffffffffffffffffff163373ffffffffffffffffffffffffffffffffffffffff161480156148975750614895612a70565b155b6148ec576040517f08c379a000000000000000000000000000000000000000000000000000000000815260040180806020018281038252603c815260200180617100603c913960400191505060405180910390fd5b6148f461693e565b73ffffffffffffffffffffffffffffffffffffffff166390b12b4789898989898989896040518963ffffffff1660e01b81526004018080602001806020018773ffffffffffffffffffffffffffffffffffffffff1673ffffffffffffffffffffffffffffffffffffffff1681526020018660ff1660ff16815260200185815260200184815260200183810383528b8b82818152602001925080828437600081840152601f19601f8201169050808301925050508381038252898982818152602001925080828437600081840152601f19601f8201169050808301925050509a5050505050505050505050600060405180830381600087803b1580156149f857600080fd5b505af1158015614a0c573d6000803e3d6000fd5b505050505050505050505050565b600e8060000160009054906101000a900460ff16908060000160019054906101000a900460ff16908060010154908060020154905084565b600860029054906101000a900460ff16614ab7576040517f08c379a000000000000000000000000000000000000000000000000000000000815260040180806020018281038252603681526020018061731b6036913960400191505060405180910390fd5b600360019054906101000a900473ffffffffffffffffffffffffffffffffffffffff1673ffffffffffffffffffffffffffffffffffffffff163373ffffffffffffffffffffffffffffffffffffffff16148015614b195750614b17612a70565b155b614b6e576040517f08c379a000000000000000000000000000000000000000000000000000000000815260040180806020018281038252603c815260200180617100603c913960400191505060405180910390fd5b614b7661693e565b73ffffffffffffffffffffffffffffffffffffffff16639dca362f6040518163ffffffff1660e01b8152600401602060405180830381600087803b158015614bbd57600080fd5b505af1158015614bd1573d6000803e3d6000fd5b505050506040513d6020811015614be757600080fd5b8101908080519060200190929190505050614c6a576040517f08c379a00000000000000000000000000000000000000000000000000000000081526004018080602001828103825260178152602001807f4163636f756e74206372656174696f6e206661696c656400000000000000000081525060200191505060405180910390fd5b565b6001600260008282540192505081905550600060025490506000614c8e612a70565b9050600460009054906101000a900473ffffffffffffffffffffffffffffffffffffffff1673ffffffffffffffffffffffffffffffffffffffff163373ffffffffffffffffffffffffffffffffffffffff16148015614cea5750805b80614d4c5750600360019054906101000a900473ffffffffffffffffffffffffffffffffffffffff1673ffffffffffffffffffffffffffffffffffffffff163373ffffffffffffffffffffffffffffffffffffffff16148015614d4b575080155b5b614da1576040517f08c379a000000000000000000000000000000000000000000000000000000000815260040180806020018281038252604c815260200180617525604c913960600191505060405180910390fd5b614da9616cea565b73ffffffffffffffffffffffffffffffffffffffff16639dfb608188888888886040518663ffffffff1660e01b8152600401808673ffffffffffffffffffffffffffffffffffffffff1673ffffffffffffffffffffffffffffffffffffffff1681526020018581526020018473ffffffffffffffffffffffffffffffffffffffff1673ffffffffffffffffffffffffffffffffffffffff1681526020018373ffffffffffffffffffffffffffffffffffffffff1673ffffffffffffffffffffffffffffffffffffffff16815260200182815260200195505050505050602060405180830381600087803b158015614e9f57600080fd5b505af1158015614eb3573d6000803e3d6000fd5b505050506040513d6020811015614ec957600080fd5b810190808051906020019092919050505050506002548114614f53576040517f08c379a000000000000000000000000000000000000000000000000000000000815260040180806020018281038252600e8152602001807f7265656e7472616e742063616c6c00000000000000000000000000000000000081525060200191505060405180910390fd5b505050505050565b6000614f65612a70565b9050600460009054906101000a900473ffffffffffffffffffffffffffffffffffffffff1673ffffffffffffffffffffffffffffffffffffffff163373ffffffffffffffffffffffffffffffffffffffff16148015614fc15750805b806150235750600360019054906101000a900473ffffffffffffffffffffffffffffffffffffffff1673ffffffffffffffffffffffffffffffffffffffff163373ffffffffffffffffffffffffffffffffffffffff16148015615022575080155b5b615078576040517f08c379a000000000000000000000000000000000000000000000000000000000815260040180806020018281038252604c815260200180617525604c913960600191505060405180910390fd5b600160009054906101000a900473ffffffffffffffffffffffffffffffffffffffff1673ffffffffffffffffffffffffffffffffffffffff1663dcf0aaed60405160200180807f537461626c65546f6b656e000000000000000000000000000000000000000000815250600b019050604051602081830303815290604052805190602001206040518263ffffffff1660e01b81526004018082815260200191505060206040518083038186803b15801561513157600080fd5b505afa158015615145573d6000803e3d6000fd5b505050506040513d602081101561515b57600080fd5b810190808051906020019092919050505073ffffffffffffffffffffffffffffffffffffffff1663a9059cbb84846040518363ffffffff1660e01b8152600401808373ffffffffffffffffffffffffffffffffffffffff1673ffffffffffffffffffffffffffffffffffffffff16815260200182815260200192505050602060405180830381600087803b1580156151f257600080fd5b505af1158015615206573d6000803e3d6000fd5b505050506040513d602081101561521c57600080fd5b810190808051906020019092919050505050505050565b61523b6147d7565b6152ad576040517f08c379a00000000000000000000000000000000000000000000000000000000081526004018080602001828103825260208152602001807f4f776e61626c653a2063616c6c6572206973206e6f7420746865206f776e657281525060200191505060405180910390fd5b600073ffffffffffffffffffffffffffffffffffffffff168173ffffffffffffffffffffffffffffffffffffffff161415615350576040517f08c379a00000000000000000000000000000000000000000000000000000000081526004018080602001828103825260208152602001807f43616e6e6f7420726567697374657220746865206e756c6c206164647265737381525060200191505060405180910390fd5b80600160006101000a81548173ffffffffffffffffffffffffffffffffffffffff021916908373ffffffffffffffffffffffffffffffffffffffff1602179055508073ffffffffffffffffffffffffffffffffffffffff167f27fe5f0c1c3b1ed427cc63d0f05759ffdecf9aec9e18d31ef366fc8a6cb5dc3b60405160405180910390a250565b600160026000828254019250508190555060006002549050600460009054906101000a900473ffffffffffffffffffffffffffffffffffffffff1673ffffffffffffffffffffffffffffffffffffffff163373ffffffffffffffffffffffffffffffffffffffff1614615495576040517f08c379a00000000000000000000000000000000000000000000000000000000081526004018080602001828103825260328152602001806170186032913960400191505060405180910390fd5b600e60000160009054906101000a900460ff166154fd576040517f08c379a000000000000000000000000000000000000000000000000000000000815260040180806020018281038252602b815260200180617079602b913960400191505060405180910390fd5b615505612a70565b1561555b576040517f08c379a00000000000000000000000000000000000000000000000000000000081526004018080602001828103825260358152602001806173b26035913960400191505060405180910390fd5b42600e6002018190555061556d612756565b600e600101819055507fbe8cff0b1980fe3ca968bf08dddc227b238e8398c0fa79445471303c981bc4c2600e60020154600e60010154604051808381526020018281526020019250505060405180910390a16002548114615636576040517f08c379a000000000000000000000000000000000000000000000000000000000815260040180806020018281038252600e8152602001807f7265656e7472616e742063616c6c00000000000000000000000000000000000081525060200191505060405180910390fd5b50565b600160026000828254019250508190555060006002549050600860019054906101000a900460ff166156b6576040517f08c379a000000000000000000000000000000000000000000000000000000000815260040180806020018281038252603a815260200180617470603a913960400191505060405180910390fd5b60006156c0612a70565b9050600460009054906101000a900473ffffffffffffffffffffffffffffffffffffffff1673ffffffffffffffffffffffffffffffffffffffff163373ffffffffffffffffffffffffffffffffffffffff1614801561571c5750805b8061577e5750600360019054906101000a900473ffffffffffffffffffffffffffffffffffffffff1673ffffffffffffffffffffffffffffffffffffffff163373ffffffffffffffffffffffffffffffffffffffff1614801561577d575080155b5b6157d3576040517f08c379a000000000000000000000000000000000000000000000000000000000815260040180806020018281038252604c815260200180617525604c913960600191505060405180910390fd5b3073ffffffffffffffffffffffffffffffffffffffff166157f261693e565b73ffffffffffffffffffffffffffffffffffffffff16634ce38b5f306040518263ffffffff1660e01b8152600401808273ffffffffffffffffffffffffffffffffffffffff1673ffffffffffffffffffffffffffffffffffffffff16815260200191505060206040518083038186803b15801561586e57600080fd5b505afa158015615882573d6000803e3d6000fd5b505050506040513d602081101561589857600080fd5b810190808051906020019092919050505073ffffffffffffffffffffffffffffffffffffffff1614156158cf576158ce86616a39565b5b6158d761693e565b73ffffffffffffffffffffffffffffffffffffffff1663baf7ef0f878787876040518563ffffffff1660e01b8152600401808573ffffffffffffffffffffffffffffffffffffffff1673ffffffffffffffffffffffffffffffffffffffff1681526020018460ff1660ff168152602001838152602001828152602001945050505050600060405180830381600087803b15801561597357600080fd5b505af1158015615987573d6000803e3d6000fd5b50505050506002548114615a03576040517f08c379a000000000000000000000000000000000000000000000000000000000815260040180806020018281038252600e8152602001807f7265656e7472616e742063616c6c00000000000000000000000000000000000081525060200191505060405180910390fd5b5050505050565b600860009054906101000a900460ff1681565b6000615a2761693e565b73ffffffffffffffffffffffffffffffffffffffff166325ca4c9c306040518263ffffffff1660e01b8152600401808273ffffffffffffffffffffffffffffffffffffffff1673ffffffffffffffffffffffffffffffffffffffff16815260200191505060206040518083038186803b158015615aa357600080fd5b505afa158015615ab7573d6000803e3d6000fd5b505050506040513d6020811015615acd57600080fd5b810190808051906020019092919050505015615c7e576000615aed616843565b905060008173ffffffffffffffffffffffffffffffffffffffff1663b6e1e49d306040518263ffffffff1660e01b8152600401808273ffffffffffffffffffffffffffffffffffffffff1673ffffffffffffffffffffffffffffffffffffffff16815260200191505060206040518083038186803b158015615b6e57600080fd5b505afa158015615b82573d6000803e3d6000fd5b505050506040513d6020811015615b9857600080fd5b81019080805190602001909291905050509050615c75818373ffffffffffffffffffffffffffffffffffffffff166330ec70f5306040518263ffffffff1660e01b8152600401808273ffffffffffffffffffffffffffffffffffffffff1673ffffffffffffffffffffffffffffffffffffffff16815260200191505060206040518083038186803b158015615c2c57600080fd5b505afa158015615c40573d6000803e3d6000fd5b505050506040513d6020811015615c5657600080fd5b81019080805190602001909291905050506165de90919063ffffffff16565b92505050615c83565b600090505b90565b600047905090565b600360019054906101000a900473ffffffffffffffffffffffffffffffffffffffff1673ffffffffffffffffffffffffffffffffffffffff163373ffffffffffffffffffffffffffffffffffffffff16148015615cf05750615cee612a70565b155b615d45576040517f08c379a000000000000000000000000000000000000000000000000000000000815260040180806020018281038252603c815260200180617100603c913960400191505060405180910390fd5b615d4d61693e565b73ffffffffffffffffffffffffffffffffffffffff16639cafb2a1858585856040518563ffffffff1660e01b8152600401808573ffffffffffffffffffffffffffffffffffffffff1673ffffffffffffffffffffffffffffffffffffffff1681526020018460ff1660ff168152602001838152602001828152602001945050505050600060405180830381600087803b158015615de957600080fd5b505af1158015615dfd573d6000803e3d6000fd5b5050505050505050565b600860019054906101000a900460ff1681565b600160026000828254019250508190555060006002549050600460009054906101000a900473ffffffffffffffffffffffffffffffffffffffff1673ffffffffffffffffffffffffffffffffffffffff163373ffffffffffffffffffffffffffffffffffffffff16148015615e935750615e92612a70565b5b615ee8576040517f08c379a00000000000000000000000000000000000000000000000000000000081526004018080602001828103825260398152602001806174166039913960400191505060405180910390fd5b6000615ef2615a1d565b14615f48576040517f08c379a00000000000000000000000000000000000000000000000000000000081526004018080602001828103825260238152602001806175026023913960400191505060405180910390fd5b6000615f64600654600e60010154616b6690919063ffffffff16565b905080471015615fdc576040517f08c379a00000000000000000000000000000000000000000000000000000000081526004018080602001828103825260148152602001807f496e636f6e73697374656e742062616c616e636500000000000000000000000081525060200191505060405180910390fd5b61602781600360019054906101000a900473ffffffffffffffffffffffffffffffffffffffff1673ffffffffffffffffffffffffffffffffffffffff16616bb090919063ffffffff16565b6000616031615c86565b905061607e81600560009054906101000a900473ffffffffffffffffffffffffffffffffffffffff1673ffffffffffffffffffffffffffffffffffffffff16616bb090919063ffffffff16565b3073ffffffffffffffffffffffffffffffffffffffff16600360019054906101000a900473ffffffffffffffffffffffffffffffffffffffff1673ffffffffffffffffffffffffffffffffffffffff167f6a394f457aa81997bcda400fd5c309a1349f3a3233527e5e6c495be7b63c5bb060405160405180910390a3600560009054906101000a900473ffffffffffffffffffffffffffffffffffffffff1673ffffffffffffffffffffffffffffffffffffffff16ff5b600460009054906101000a900473ffffffffffffffffffffffffffffffffffffffff1673ffffffffffffffffffffffffffffffffffffffff163373ffffffffffffffffffffffffffffffffffffffff16146161db576040517f08c379a00000000000000000000000000000000000000000000000000000000081526004018080602001828103825260328152602001806170186032913960400191505060405180910390fd5b6103e8811115616236576040517f08c379a000000000000000000000000000000000000000000000000000000000815260040180806020018281038252602c815260200180616f74602c913960400191505060405180910390fd5b7fffffffffffffffffffffffffffffffffffffffffffffffffffffffffffffffff60075414156162b1576040517f08c379a00000000000000000000000000000000000000000000000000000000081526004018080602001828103825260388152602001806171a06038913960400191505060405180910390fd5b6103e88114156162e7577fffffffffffffffffffffffffffffffffffffffffffffffffffffffffffffffff60078190555061637b565b60006162f1612281565b90506000811161634c576040517f08c379a00000000000000000000000000000000000000000000000000000000081526004018080602001828103825260398152602001806171676039913960400191505060405180910390fd5b6163736103e8616365848461666690919063ffffffff16565b6167f990919063ffffffff16565b600781905550505b600360019054906101000a900473ffffffffffffffffffffffffffffffffffffffff1673ffffffffffffffffffffffffffffffffffffffff167f4fe054e42e0978de058ed4f176a4af2412f9ea91f6953494733d32f4284432b46007546040518082815260200191505060405180910390a250565b6163f86147d7565b61646a576040517f08c379a00000000000000000000000000000000000000000000000000000000081526004018080602001828103825260208152602001807f4f776e61626c653a2063616c6c6572206973206e6f7420746865206f776e657281525060200191505060405180910390fd5b6164738161649a565b50565b60098060000154908060010154908060020154908060030154908060040154905085565b600073ffffffffffffffffffffffffffffffffffffffff168173ffffffffffffffffffffffffffffffffffffffff161415616520576040517f08c379a00000000000000000000000000000000000000000000000000000000081526004018080602001828103825260268152602001806170da6026913960400191505060405180910390fd5b8073ffffffffffffffffffffffffffffffffffffffff166000809054906101000a900473ffffffffffffffffffffffffffffffffffffffff1673ffffffffffffffffffffffffffffffffffffffff167f8be0079c531659141344cd1fd0a4f28419497f9722a3daafe3b4186f6b6457e060405160405180910390a3806000806101000a81548173ffffffffffffffffffffffffffffffffffffffff021916908373ffffffffffffffffffffffffffffffffffffffff16021790555050565b60008082840190508381101561665c576040517f08c379a000000000000000000000000000000000000000000000000000000000815260040180806020018281038252601b8152602001807f536166654d6174683a206164646974696f6e206f766572666c6f77000000000081525060200191505060405180910390fd5b8091505092915050565b60008083141561667957600090506166e6565b600082840290508284828161668a57fe5b04146166e1576040517f08c379a000000000000000000000000000000000000000000000000000000000815260040180806020018281038252602181526020018061744f6021913960400191505060405180910390fd5b809150505b92915050565b600073ffffffffffffffffffffffffffffffffffffffff168173ffffffffffffffffffffffffffffffffffffffff161415616772576040517f08c379a000000000000000000000000000000000000000000000000000000000815260040180806020018281038252602d8152602001806172be602d913960400191505060405180910390fd5b80600360016101000a81548173ffffffffffffffffffffffffffffffffffffffff021916908373ffffffffffffffffffffffffffffffffffffffff1602179055508073ffffffffffffffffffffffffffffffffffffffff167f04d55a8be181fb8d75b76f2d48aa0b2ee40f47e53d6e61763eeeec46feea8a2460405160405180910390a250565b600061683b83836040518060400160405280601a81526020017f536166654d6174683a206469766973696f6e206279207a65726f000000000000815250616ded565b905092915050565b6000600160009054906101000a900473ffffffffffffffffffffffffffffffffffffffff1673ffffffffffffffffffffffffffffffffffffffff1663dcf0aaed60405160200180807f4c6f636b6564476f6c6400000000000000000000000000000000000000000000815250600a019050604051602081830303815290604052805190602001206040518263ffffffff1660e01b81526004018082815260200191505060206040518083038186803b1580156168fe57600080fd5b505afa158015616912573d6000803e3d6000fd5b505050506040513d602081101561692857600080fd5b8101908080519060200190929190505050905090565b6000600160009054906101000a900473ffffffffffffffffffffffffffffffffffffffff1673ffffffffffffffffffffffffffffffffffffffff1663dcf0aaed60405160200180807f4163636f756e74730000000000000000000000000000000000000000000000008152506008019050604051602081830303815290604052805190602001206040518263ffffffff1660e01b81526004018082815260200191505060206040518083038186803b1580156169f957600080fd5b505afa158015616a0d573d6000803e3d6000fd5b505050506040513d6020811015616a2357600080fd5b8101908080519060200190929190505050905090565b6000670de0b6b3a7640000905080471015616abc576040517f08c379a00000000000000000000000000000000000000000000000000000000081526004018080602001828103825260208152602001807f6e6f20617661696c61626c652063474c4420746f2066756e64207369676e657281525060200191505060405180910390fd5b616ae5818373ffffffffffffffffffffffffffffffffffffffff16616bb090919063ffffffff16565b6000616aef612840565b11616b62576040517f08c379a00000000000000000000000000000000000000000000000000000000081526004018080602001828103825260148152602001807f6e6f2072656d61696e696e672062616c616e636500000000000000000000000081525060200191505060405180910390fd5b5050565b6000616ba883836040518060400160405280601e81526020017f536166654d6174683a207375627472616374696f6e206f766572666c6f770000815250616eb3565b905092915050565b80471015616c26576040517f08c379a000000000000000000000000000000000000000000000000000000000815260040180806020018281038252601d8152602001807f416464726573733a20696e73756666696369656e742062616c616e636500000081525060200191505060405180910390fd5b60008273ffffffffffffffffffffffffffffffffffffffff168260405180600001905060006040518083038185875af1925050503d8060008114616c86576040519150601f19603f3d011682016040523d82523d6000602084013e616c8b565b606091505b5050905080616ce5576040517f08c379a000000000000000000000000000000000000000000000000000000000815260040180806020018281038252603a815260200180617251603a913960400191505060405180910390fd5b505050565b6000600160009054906101000a900473ffffffffffffffffffffffffffffffffffffffff1673ffffffffffffffffffffffffffffffffffffffff1663dcf0aaed60405160200180807f456c656374696f6e0000000000000000000000000000000000000000000000008152506008019050604051602081830303815290604052805190602001206040518263ffffffff1660e01b81526004018082815260200191505060206040518083038186803b158015616da557600080fd5b505afa158015616db9573d6000803e3d6000fd5b505050506040513d6020811015616dcf57600080fd5b8101908080519060200190929190505050905090565b600033905090565b60008083118290616e99576040517f08c379a00000000000000000000000000000000000000000000000000000000081526004018080602001828103825283818151815260200191508051906020019080838360005b83811015616e5e578082015181840152602081019050616e43565b50505050905090810190601f168015616e8b5780820380516001836020036101000a031916815260200191505b509250505060405180910390fd5b506000838581616ea557fe5b049050809150509392505050565b6000838311158290616f60576040517f08c379a00000000000000000000000000000000000000000000000000000000081526004018080602001828103825283818151815260200191508051906020019080838360005b83811015616f25578082015181840152602081019050616f0a565b50505050905090810190601f168015616f525780820380516001836020036101000a031916815260200191505b509250505060405180910390fd5b506000838503905080915050939250505056fe4d617820646973747269627574696f6e20726174696f206d7573742062652077697468696e20626f756e64736045585049524154494f4e5f54494d4560206d7573742068617665207061737365642061667465722074686520656e64206f662072656c656173696e67496620636f6e7472616374206973207265766f6361626c65207468657265206d75737420626520616e206164647265737320746f20726566756e6453656e646572206d7573742062652074686520726567697374657265642072656c656173654f776e6572206164647265737345787069726174696f6e20666c616720697320616c72656164792073657420746f20646573697265642076616c756552656c65617365207363686564756c6520696e7374616e6365206d757374206265207265766f6361626c65526571756573746564207769746864726177616c206265666f7265206c69717569646974792070726f766973696f6e206973206d65744f776e61626c653a206e6577206f776e657220697320746865207a65726f206164647265737353656e646572206d757374206265207468652062656e656669636961727920616e64207374617465206d757374206e6f74206265207265766f6b65645468657265206d757374206265206174206c65617374206f6e652072656c656173696e6720706572696f64446f206e6f7420736574206d617820646973747269627574696f6e206265666f726520666163746f72792073656e64732074686520676f6c6443616e6e6f7420736574206d617820646973747269627574696f6e206c6f77657220696620616c72656164792073657420746f203130303052657175657374656420616d6f756e7420657863656564732063757272656e7420616c6c6f746564206d6178696d756d20646973747269627574696f6e5468652072656c65617365207363686564756c652062656e65666963696172792063616e6e6f7420626520746865207a65726f206164647265737373416464726573733a20756e61626c6520746f2073656e642076616c75652c20726563697069656e74206d61792068617665207265766572746564436f6e74726163742062616c616e6365206d75737420657175616c2074686520656e74697265206772616e7420616d6f756e7443616e277420736574207468652062656e656669636961727920746f20746865207a65726f2061646472657373496e73756666696369656e7420756e6c6f636b65642062616c616e636520746f20776974686472617720616d6f756e7452656c6561736520476f6c6420636f6e747261637420646f6573206e6f742068617665207065726d697373696f6e20746f20766f7465496e697469616c20646973747269627574696f6e20726174696f206f7574206f6620626f756e647352657175657374656420616d6f756e742069732067726561746572207468616e20617661696c61626c652072656c65617365642066756e647352656c65617365207363686564756c6520696e7374616e6365206d757374206e6f7420616c7265616479206265207265766f6b656454686520726567697374727920616464726573732063616e6e6f7420626520746865207a65726f206164647265737353656e646572206d757374206265207468652072656c656173654f776e657220616e64207374617465206d757374206265207265766f6b6564536166654d6174683a206d756c7469706c69636174696f6e206f766572666c6f7752656c6561736520476f6c6420636f6e747261637420646f6573206e6f742068617665207065726d697373696f6e20746f2076616c6964617465526571756573746564207769746864726177616c20616d6f756e74206d7573742062652067726561746572207468616e207a65726f5265766f6361626c6520636f6e7472616374732063616e6e6f742076616c6964617465546f74616c20676f6c642062616c616e6365206d75737420626520756e6c6f636b65644d7573742062652063616c6c65642062792072656c656173654f776e6572207768656e207265766f6b6564206f722062656e6566696369617279206265666f7265207265766f636174696f6e53656e646572206d7573742062652074686520726567697374657265642062656e656669636961727920616464726573734c69717569646974792070726f766973696f6e2068617320616c7265616479206265656e207365745468652072656c656173656420616d6f756e742070657220706572696f64206d7573742062652067726561746572207468616e207a65726fa265627a7a7231582036851176d4138cf8cfb1638afc8d47fc2d8687bcfa6489c4de99dfe9113fabac64736f6c634300050d0032",
  "source": "pragma solidity ^0.5.13;\n\nimport \"openzeppelin-solidity/contracts/math/SafeMath.sol\";\nimport \"openzeppelin-solidity/contracts/token/ERC20/IERC20.sol\";\nimport \"openzeppelin-solidity/contracts/utils/Address.sol\";\n\nimport \"./interfaces/IReleaseGold.sol\";\n\nimport \"../common/FixidityLib.sol\";\nimport \"../common/libraries/ReentrancyGuard.sol\";\nimport \"../common/Initializable.sol\";\nimport \"../common/UsingRegistry.sol\";\n\ncontract ReleaseGold is UsingRegistry, ReentrancyGuard, IReleaseGold, Initializable {\n  using SafeMath for uint256;\n  using FixidityLib for FixidityLib.Fraction;\n  using Address for address payable; // prettier-ignore\n\n  struct ReleaseSchedule {\n    // Timestamp (in UNIX time) that releasing begins.\n    uint256 releaseStartTime;\n    // Timestamp (in UNIX time) of the releasing cliff.\n    uint256 releaseCliff;\n    // Number of release periods.\n    uint256 numReleasePeriods;\n    // Duration (in seconds) of one period.\n    uint256 releasePeriod;\n    // Amount that is to be released per period.\n    uint256 amountReleasedPerPeriod;\n  }\n\n  struct RevocationInfo {\n    // Indicates if the contract is revocable.\n    bool revocable;\n    // Indicates if the contract can expire `EXPIRATION_TIME` after releasing finishes.\n    bool canExpire;\n    // Released gold instance balance at time of revocation.\n    uint256 releasedBalanceAtRevoke;\n    // The time at which the release schedule was revoked.\n    uint256 revokeTime;\n  }\n\n  // uint256(-1) == 0xffffffffffffffffffffffffffffffffffffffffffffffffffffffffffffffff\n  uint256 internal constant MAX_UINT = uint256(-1);\n\n  // Duration (in seconds) after gold is fully released\n  // when gold should be switched back to control of releaseOwner.\n  // 2 years\n  uint256 public constant EXPIRATION_TIME = 63072000;\n\n  // Beneficiary of the Celo Gold released in this contract.\n  address payable public beneficiary;\n\n  // Address capable of (where applicable) revoking, setting the liquidity provision, and\n  // adjusting the maximum withdrawal amount.\n  address public releaseOwner;\n\n  // Address that receives refunded gold if contract is revoked.\n  address payable public refundAddress;\n\n  // Indicates how much of the released amount has been withdrawn so far.\n  uint256 public totalWithdrawn;\n\n  // Indicates the maximum gold currently available for distribution, regardless of schedule.\n  // Only settable by the `releaseOwner` address, subject to grant conditions.\n  uint256 public maxDistribution;\n\n  // Indicates if the schedule contains a liquidity provision that has not yet been met.\n  // Only settable by the `releaseOwner` address, subject to grant conditions.\n  bool public liquidityProvisionMet;\n\n  // Indicates if this schedule's unreleased gold can be used for validating.\n  bool public canValidate;\n\n  // Indicates if this schedule's unreleased gold can be used for voting.\n  bool public canVote;\n\n  // Public struct housing params pertaining to releasing gold.\n  ReleaseSchedule public releaseSchedule;\n\n  // Public struct housing params pertaining to revocation.\n  RevocationInfo public revocationInfo;\n\n  event ReleaseGoldInstanceCreated(address indexed beneficiary, address indexed atAddress);\n  event ReleaseScheduleRevoked(uint256 revokeTimestamp, uint256 releasedBalanceAtRevoke);\n  event ReleaseGoldInstanceDestroyed(address indexed beneficiary, address indexed atAddress);\n  event DistributionLimitSet(address indexed beneficiary, uint256 maxDistribution);\n  event LiquidityProvisionSet(address indexed beneficiary);\n  event CanExpireSet(bool canExpire);\n  event BeneficiarySet(address indexed beneficiary);\n\n  modifier onlyReleaseOwner() {\n    require(msg.sender == releaseOwner, \"Sender must be the registered releaseOwner address\");\n    _;\n  }\n\n  modifier onlyBeneficiary() {\n    require(msg.sender == beneficiary, \"Sender must be the registered beneficiary address\");\n    _;\n  }\n\n  modifier onlyRevoked() {\n    require(isRevoked(), \"Release schedule instance must have already been revoked\");\n    _;\n  }\n\n  modifier onlyRevocable() {\n    require(revocationInfo.revocable, \"Release schedule instance must be revocable\");\n    _;\n  }\n\n  modifier onlyCanVote() {\n    require(canVote, \"Release Gold contract does not have permission to vote\");\n    _;\n  }\n\n  modifier onlyCanValidate() {\n    require(canValidate, \"Release Gold contract does not have permission to validate\");\n    _;\n  }\n\n  modifier onlyReleaseOwnerAndRevoked() {\n    require(\n      msg.sender == releaseOwner && isRevoked(),\n      \"Sender must be the releaseOwner and state must be revoked\"\n    );\n    _;\n  }\n\n  modifier onlyBeneficiaryAndNotRevoked() {\n    require(\n      msg.sender == beneficiary && !isRevoked(),\n      \"Sender must be the beneficiary and state must not be revoked\"\n    );\n    _;\n  }\n\n  modifier onlyWhenInProperState() {\n    bool isRevoked = isRevoked();\n    require(\n      (msg.sender == releaseOwner && isRevoked) || (msg.sender == beneficiary && !isRevoked),\n      \"Must be called by releaseOwner when revoked or beneficiary before revocation\"\n    );\n    _;\n  }\n\n  modifier onlyExpired() {\n    require(revocationInfo.canExpire, \"Contract must be expirable\");\n    uint256 releaseEndTime = releaseSchedule.releaseStartTime.add(\n      releaseSchedule.numReleasePeriods.mul(releaseSchedule.releasePeriod)\n    );\n    require(\n      block.timestamp >= releaseEndTime.add(EXPIRATION_TIME),\n      \"`EXPIRATION_TIME` must have passed after the end of releasing\"\n    );\n    _;\n  }\n\n  function() external payable {} // solhint-disable no-empty-blocks\n\n  /**\n   * @notice Wrapper function for stable token transfer function.\n   */\n  function transfer(address to, uint256 value) external onlyWhenInProperState {\n    IERC20(registry.getAddressForOrDie(STABLE_TOKEN_REGISTRY_ID)).transfer(to, value);\n  }\n\n  /**\n   * @notice A constructor for initialising a new instance of a Releasing Schedule contract.\n   * @param releaseStartTime The time (in Unix time) at which point releasing starts.\n   * @param releaseCliffTime Duration (in seconds) after `releaseStartTime` of the golds' cliff.\n   * @param numReleasePeriods Number of releasing periods.\n   * @param releasePeriod Duration (in seconds) of each release period.\n   * @param amountReleasedPerPeriod The released gold amount per period.\n   * @param revocable Whether the release schedule is revocable or not.\n   * @param _beneficiary Address of the beneficiary to whom released tokens are transferred.\n   * @param _releaseOwner Address capable of revoking, setting the liquidity provision\n   *                      and setting the withdrawal amount.\n   *                      0x0 if grant is not subject to these operations.\n   * @param _refundAddress Address that receives refunded funds if contract is revoked.\n   *                       0x0 if contract is not revocable.\n   * @param subjectToLiquidityProvision If this schedule is subject to a liquidity provision.\n   * @param initialDistributionRatio Amount in range [0, 1000] (3 significant figures)\n   *                                 indicating % of total balance available for distribution.\n   * @param _canValidate If this schedule's gold can be used for validating.\n   * @param _canVote If this schedule's gold can be used for voting.\n   * @param registryAddress Address of the deployed contracts registry.\n   */\n  function initialize(\n    uint256 releaseStartTime,\n    uint256 releaseCliffTime,\n    uint256 numReleasePeriods,\n    uint256 releasePeriod,\n    uint256 amountReleasedPerPeriod,\n    bool revocable,\n    address payable _beneficiary,\n    address _releaseOwner,\n    address payable _refundAddress,\n    bool subjectToLiquidityProvision,\n    uint256 initialDistributionRatio,\n    bool _canValidate,\n    bool _canVote,\n    address registryAddress\n  ) external initializer {\n    _transferOwnership(msg.sender);\n    releaseSchedule.numReleasePeriods = numReleasePeriods;\n    releaseSchedule.amountReleasedPerPeriod = amountReleasedPerPeriod;\n    releaseSchedule.releasePeriod = releasePeriod;\n    releaseSchedule.releaseCliff = releaseStartTime.add(releaseCliffTime);\n    releaseSchedule.releaseStartTime = releaseStartTime;\n    // Expiry is opt-in for folks who can validate, opt-out for folks who cannot.\n    // This is because folks who are running Validators or Groups are likely to want to keep\n    // cGLD in the ReleaseGold contract even after it becomes withdrawable.\n    revocationInfo.canExpire = !canValidate;\n    require(releaseSchedule.numReleasePeriods >= 1, \"There must be at least one releasing period\");\n    require(\n      releaseSchedule.amountReleasedPerPeriod > 0,\n      \"The released amount per period must be greater than zero\"\n    );\n    require(\n      _beneficiary != address(0),\n      \"The release schedule beneficiary cannot be the zero addresss\"\n    );\n    require(registryAddress != address(0), \"The registry address cannot be the zero address\");\n    require(\n      address(this).balance ==\n        releaseSchedule.amountReleasedPerPeriod.mul(releaseSchedule.numReleasePeriods),\n      \"Contract balance must equal the entire grant amount\"\n    );\n    require(!(revocable && _canValidate), \"Revocable contracts cannot validate\");\n    require(initialDistributionRatio <= 1000, \"Initial distribution ratio out of bounds\");\n    require(\n      (revocable && _refundAddress != address(0)) || (!revocable && _refundAddress == address(0)),\n      \"If contract is revocable there must be an address to refund\"\n    );\n\n    setRegistry(registryAddress);\n    _setBeneficiary(_beneficiary);\n    revocationInfo.revocable = revocable;\n    releaseOwner = _releaseOwner;\n    refundAddress = _refundAddress;\n\n    if (initialDistributionRatio < 1000) {\n      // Cannot use `getTotalBalance()` here because the factory has not yet sent the gold.\n      uint256 totalGrant = releaseSchedule.amountReleasedPerPeriod.mul(\n        releaseSchedule.numReleasePeriods\n      );\n      // Initial ratio is expressed to 3 significant figures: [0, 1000].\n      maxDistribution = totalGrant.mul(initialDistributionRatio).div(1000);\n    } else {\n      maxDistribution = MAX_UINT;\n    }\n    liquidityProvisionMet = (subjectToLiquidityProvision) ? false : true;\n    canValidate = _canValidate;\n    canVote = _canVote;\n    emit ReleaseGoldInstanceCreated(beneficiary, address(this));\n  }\n\n  /**\n   * @notice Returns if the release schedule has been revoked or not.\n   * @return True if instance revoked.\n   */\n  function isRevoked() public view returns (bool) {\n    return revocationInfo.revokeTime > 0;\n  }\n\n  /**\n   * @notice Controls if the liquidity provision has been met, allowing gold to be withdrawn.\n   */\n  function setLiquidityProvision() external onlyReleaseOwner {\n    require(!liquidityProvisionMet, \"Liquidity provision has already been set\");\n    liquidityProvisionMet = true;\n    emit LiquidityProvisionSet(beneficiary);\n  }\n\n  /**\n   * @notice Controls if the contract can be expired.\n   * @param _canExpire If the contract is expirable.\n   */\n  function setCanExpire(bool _canExpire) external onlyBeneficiary {\n    require(\n      revocationInfo.canExpire != _canExpire,\n      \"Expiration flag is already set to desired value\"\n    );\n    revocationInfo.canExpire = _canExpire;\n    emit CanExpireSet(revocationInfo.canExpire);\n  }\n\n  /**\n   * @notice Controls the maximum distribution ratio.\n   *         Calculates `distributionRatio`/1000 of current `totalBalance()`\n   *         and sets this value as the maximum allowed gold to be currently withdrawn.\n   * @param distributionRatio Amount in range [0, 1000] (3 significant figures)\n   *                          indicating % of total balance available for distribution.\n   */\n  function setMaxDistribution(uint256 distributionRatio) external onlyReleaseOwner {\n    require(distributionRatio <= 1000, \"Max distribution ratio must be within bounds\");\n    require(\n      maxDistribution != MAX_UINT,\n      \"Cannot set max distribution lower if already set to 1000\"\n    );\n    // If ratio is 1000, we set maxDistribution to maxUint to account for future rewards.\n    if (distributionRatio == 1000) {\n      maxDistribution = MAX_UINT;\n    } else {\n      uint256 totalBalance = getTotalBalance();\n      require(totalBalance > 0, \"Do not set max distribution before factory sends the gold\");\n      maxDistribution = totalBalance.mul(distributionRatio).div(1000);\n    }\n    emit DistributionLimitSet(beneficiary, maxDistribution);\n  }\n\n  /**\n   * @notice Sets the beneficiary of the instance\n   * @param newBeneficiary The address of the new beneficiary\n   */\n  function setBeneficiary(address payable newBeneficiary) external onlyOwner {\n    _setBeneficiary(newBeneficiary);\n  }\n\n  /**\n   * @notice Sets the beneficiary of the instance\n   * @param newBeneficiary The address of the new beneficiary\n   */\n  function _setBeneficiary(address payable newBeneficiary) private {\n    require(newBeneficiary != address(0x0), \"Can't set the beneficiary to the zero address\");\n    beneficiary = newBeneficiary;\n    emit BeneficiarySet(newBeneficiary);\n  }\n\n  /**\n   * @notice Transfers gold from this release schedule instance to the beneficiary.\n   * @param amount The requested gold amount.\n   */\n  function withdraw(uint256 amount) external nonReentrant onlyBeneficiary {\n    require(amount > 0, \"Requested withdrawal amount must be greater than zero\");\n    require(liquidityProvisionMet, \"Requested withdrawal before liquidity provision is met\");\n\n    uint256 releasedAmount;\n    if (isRevoked()) {\n      releasedAmount = revocationInfo.releasedBalanceAtRevoke;\n    } else {\n      releasedAmount = getCurrentReleasedTotalAmount();\n    }\n\n    require(\n      releasedAmount.sub(totalWithdrawn) >= amount,\n      \"Requested amount is greater than available released funds\"\n    );\n    require(\n      maxDistribution >= totalWithdrawn.add(amount),\n      \"Requested amount exceeds current alloted maximum distribution\"\n    );\n    require(\n      getRemainingUnlockedBalance() >= amount,\n      \"Insufficient unlocked balance to withdraw amount\"\n    );\n    totalWithdrawn = totalWithdrawn.add(amount);\n    beneficiary.sendValue(amount);\n    if (getRemainingTotalBalance() == 0) {\n      emit ReleaseGoldInstanceDestroyed(beneficiary, address(this));\n      selfdestruct(refundAddress);\n    }\n  }\n\n  /**\n   * @notice Refund the releaseOwner and beneficiary after the release schedule has been revoked.\n   */\n  function refundAndFinalize() external nonReentrant onlyReleaseOwnerAndRevoked {\n    require(getRemainingLockedBalance() == 0, \"Total gold balance must be unlocked\");\n    uint256 beneficiaryAmount = revocationInfo.releasedBalanceAtRevoke.sub(totalWithdrawn);\n    require(address(this).balance >= beneficiaryAmount, \"Inconsistent balance\");\n    beneficiary.sendValue(beneficiaryAmount);\n    uint256 revokerAmount = getRemainingUnlockedBalance();\n    refundAddress.sendValue(revokerAmount);\n    emit ReleaseGoldInstanceDestroyed(beneficiary, address(this));\n    selfdestruct(refundAddress);\n  }\n\n  /**\n   * @notice Revoke the future release schedule.\n   */\n  function revoke() external nonReentrant onlyReleaseOwner onlyRevocable {\n    require(!isRevoked(), \"Release schedule instance must not already be revoked\");\n    revocationInfo.revokeTime = block.timestamp;\n    revocationInfo.releasedBalanceAtRevoke = getCurrentReleasedTotalAmount();\n    emit ReleaseScheduleRevoked(revocationInfo.revokeTime, revocationInfo.releasedBalanceAtRevoke);\n  }\n\n  /**\n   * @notice Mark the contract as expired, freeing all remaining gold for refund to `refundAddress`\n   * @dev Only callable `EXPIRATION_TIME` after the final gold release.\n   */\n  function expire() external nonReentrant onlyReleaseOwner onlyExpired {\n    require(!isRevoked(), \"Release schedule instance must not already be revoked\");\n    revocationInfo.revokeTime = block.timestamp;\n    revocationInfo.releasedBalanceAtRevoke = totalWithdrawn;\n    emit ReleaseScheduleRevoked(revocationInfo.revokeTime, totalWithdrawn);\n  }\n\n  /**\n   * @notice Calculates the total balance of the release schedule instance including withdrawals.\n   * @return The total released instance gold balance.\n   * @dev The returned amount may vary over time due to locked gold rewards.\n   */\n  function getTotalBalance() public view returns (uint256) {\n    return getRemainingUnlockedBalance().add(getRemainingLockedBalance()).add(totalWithdrawn);\n  }\n\n  /**\n   * @notice Calculates the sum of locked and unlocked gold in the release schedule instance.\n   * @return The remaining total released instance gold balance.\n   * @dev The returned amount may vary over time due to locked gold rewards.\n   */\n  function getRemainingTotalBalance() public view returns (uint256) {\n    return getRemainingUnlockedBalance().add(getRemainingLockedBalance());\n  }\n\n  /**\n   * @notice Calculates remaining unlocked gold balance in the release schedule instance.\n   * @return The available unlocked release schedule instance gold balance.\n   */\n  function getRemainingUnlockedBalance() public view returns (uint256) {\n    return address(this).balance;\n  }\n\n  /**\n   * @notice Calculates remaining locked gold balance in the release schedule instance.\n   *         The returned amount also includes pending withdrawals to maintain consistent releases.\n   *         Return 0 if address of caller is not an account.\n   * @return The remaining locked gold of the release schedule instance.\n   * @dev The returned amount may vary over time due to locked gold rewards.\n   */\n  function getRemainingLockedBalance() public view returns (uint256) {\n    if (getAccounts().isAccount(address(this))) {\n      ILockedGold lockedGold = getLockedGold();\n      uint256 pendingWithdrawalSum = lockedGold.getTotalPendingWithdrawals(address(this));\n      return lockedGold.getAccountTotalLockedGold(address(this)).add(pendingWithdrawalSum);\n    }\n    return 0;\n  }\n\n  /**\n   * @dev Calculates the total amount that has already released up to now.\n   * @return The already released amount up to the point of call.\n   * @dev The returned amount may vary over time due to locked gold rewards.\n   */\n  function getCurrentReleasedTotalAmount() public view returns (uint256) {\n    if (block.timestamp < releaseSchedule.releaseCliff || !liquidityProvisionMet) {\n      return 0;\n    }\n    uint256 totalBalance = getTotalBalance();\n\n    if (\n      block.timestamp >=\n      releaseSchedule.releaseStartTime.add(\n        releaseSchedule.numReleasePeriods.mul(releaseSchedule.releasePeriod)\n      )\n    ) {\n      return totalBalance;\n    }\n\n    uint256 timeSinceStart = block.timestamp.sub(releaseSchedule.releaseStartTime);\n    uint256 periodsSinceStart = timeSinceStart.div(releaseSchedule.releasePeriod);\n    return totalBalance.mul(periodsSinceStart).div(releaseSchedule.numReleasePeriods);\n  }\n\n  /**\n   * @notice A wrapper function for the lock gold method.\n   * @param value The value of gold to be locked.\n   */\n  function lockGold(uint256 value) external nonReentrant onlyBeneficiaryAndNotRevoked {\n    getLockedGold().lock.gas(gasleft()).value(value)();\n  }\n\n  /**\n   * @notice A wrapper function for the unlock gold method function.\n   * @param value The value of gold to be unlocked for the release schedule instance.\n   */\n  function unlockGold(uint256 value) external nonReentrant onlyWhenInProperState {\n    getLockedGold().unlock(value);\n  }\n\n  /**\n   * @notice A wrapper function for the relock locked gold method function.\n   * @param index The index of the pending locked gold withdrawal.\n   * @param value The value of gold to be relocked for the release schedule instance.\n   */\n  function relockGold(uint256 index, uint256 value)\n    external\n    nonReentrant\n    onlyBeneficiaryAndNotRevoked\n  {\n    getLockedGold().relock(index, value);\n  }\n\n  /**\n   * @notice A wrapper function for the withdraw locked gold method function.\n   * @param index The index of the pending locked gold withdrawal.\n   * @dev The amount shall be withdrawn back to the release schedule instance.\n   */\n  function withdrawLockedGold(uint256 index) external nonReentrant onlyWhenInProperState {\n    getLockedGold().withdraw(index);\n  }\n\n  /**\n   * @notice Funds a signer address so that transaction fees can be paid.\n   * @param signer The signer address to fund.\n   * @dev Note that this effectively decreases the total balance by 1 cGLD.\n   */\n  function fundSigner(address payable signer) private {\n    // Fund signer account with 1 cGLD.\n    uint256 value = 1 ether;\n    require(address(this).balance >= value, \"no available cGLD to fund signer\");\n    signer.sendValue(value);\n    require(getRemainingTotalBalance() > 0, \"no remaining balance\");\n  }\n\n  /**\n   * @notice A wrapper function for the authorize vote signer account method.\n   * @param signer The address of the signing key to authorize.\n   * @param v The recovery id of the incoming ECDSA signature.\n   * @param r Output value r of the ECDSA signature.\n   * @param s Output value s of the ECDSA signature.\n   * @dev The v,r and s signature should be signed by the authorized signer\n   *      key, with the ReleaseGold contract address as the message.\n   */\n  function authorizeVoteSigner(address payable signer, uint8 v, bytes32 r, bytes32 s)\n    external\n    nonReentrant\n    onlyCanVote\n    onlyWhenInProperState\n  {\n    // If no previous signer has been authorized, fund the new signer so that tx fees can be paid.\n    if (getAccounts().getVoteSigner(address(this)) == address(this)) {\n      fundSigner(signer);\n    }\n    getAccounts().authorizeVoteSigner(signer, v, r, s);\n  }\n\n  /**\n   * @notice A wrapper function for the authorize validator signer account method.\n   * @param signer The address of the signing key to authorize.\n   * @param v The recovery id of the incoming ECDSA signature.\n   * @param r Output value r of the ECDSA signature.\n   * @param s Output value s of the ECDSA signature.\n   * @dev The v,r and s signature should be signed by the authorized signer\n   *      key, with the ReleaseGold contract address as the message.\n   */\n  function authorizeValidatorSigner(address payable signer, uint8 v, bytes32 r, bytes32 s)\n    external\n    nonReentrant\n    onlyCanValidate\n    onlyWhenInProperState\n  {\n    // If no previous signer has been authorized, fund the new signer so that tx fees can be paid.\n    if (getAccounts().getValidatorSigner(address(this)) == address(this)) {\n      fundSigner(signer);\n    }\n    getAccounts().authorizeValidatorSigner(signer, v, r, s);\n  }\n\n  /**\n   * @notice A wrapper function for the authorize validator signer with public key account method.\n   * @param signer The address of the signing key to authorize.\n   * @param v The recovery id of the incoming ECDSA signature.\n   * @param r Output value r of the ECDSA signature.\n   * @param s Output value s of the ECDSA signature.\n   * @param ecdsaPublicKey The ECDSA public key corresponding to `signer`.\n   * @dev The v,r and s signature should be signed by the authorized signer\n   *      key, with the ReleaseGold contract address as the message.\n   */\n  function authorizeValidatorSignerWithPublicKey(\n    address payable signer,\n    uint8 v,\n    bytes32 r,\n    bytes32 s,\n    bytes calldata ecdsaPublicKey\n  ) external nonReentrant onlyCanValidate onlyWhenInProperState {\n    // If no previous signer has been authorized, fund the new signer so that tx fees can be paid.\n    if (getAccounts().getValidatorSigner(address(this)) == address(this)) {\n      fundSigner(signer);\n    }\n    getAccounts().authorizeValidatorSignerWithPublicKey(signer, v, r, s, ecdsaPublicKey);\n  }\n\n  /**\n   * @notice A wrapper function for the authorize validator signer with keys account method.\n   * @param signer The address of the signing key to authorize.\n   * @param v The recovery id of the incoming ECDSA signature.\n   * @param r Output value r of the ECDSA signature.\n   * @param s Output value s of the ECDSA signature.\n   * @param ecdsaPublicKey The ECDSA public key corresponding to `signer`.\n   * @param blsPublicKey The BLS public key that the validator is using for consensus, should pass\n   *   proof of possession. 96 bytes.\n   * @param blsPop The BLS public key proof-of-possession, which consists of a signature on the\n   *   account address. 48 bytes.\n   * @dev The v,r and s signature should be signed by the authorized signer\n   *      key, with the ReleaseGold contract address as the message.\n   */\n  function authorizeValidatorSignerWithKeys(\n    address payable signer,\n    uint8 v,\n    bytes32 r,\n    bytes32 s,\n    bytes calldata ecdsaPublicKey,\n    bytes calldata blsPublicKey,\n    bytes calldata blsPop\n  ) external nonReentrant onlyCanValidate onlyWhenInProperState {\n    // If no previous signer has been authorized, fund the new signer so that tx fees can be paid.\n    if (getAccounts().getValidatorSigner(address(this)) == address(this)) {\n      fundSigner(signer);\n    }\n    getAccounts().authorizeValidatorSignerWithKeys(\n      signer,\n      v,\n      r,\n      s,\n      ecdsaPublicKey,\n      blsPublicKey,\n      blsPop\n    );\n  }\n\n  /**\n   * @notice A wrapper function for the authorize attestation signer account method.\n   * @param signer The address of the signing key to authorize.\n   * @param v The recovery id of the incoming ECDSA signature.\n   * @param r Output value r of the ECDSA signature.\n   * @param s Output value s of the ECDSA signature.\n   * @dev The v,r and s signature should be signed by the authorized signer\n   *      key, with the ReleaseGold contract address as the message.\n   */\n  function authorizeAttestationSigner(address payable signer, uint8 v, bytes32 r, bytes32 s)\n    external\n    nonReentrant\n    onlyCanValidate\n    onlyWhenInProperState\n  {\n    getAccounts().authorizeAttestationSigner(signer, v, r, s);\n  }\n\n  /**\n   * @notice A convenience wrapper setter for the name, dataEncryptionKey\n   *         and wallet address for an account.\n   * @param name A string to set as the name of the account.\n   * @param dataEncryptionKey secp256k1 public key for data encryption. Preferably compressed.\n   * @param walletAddress The wallet address to set for the account.\n   * @param v The recovery id of the incoming ECDSA signature.\n   * @param r Output value r of the ECDSA signature.\n   * @param s Output value s of the ECDSA signature.\n   * @dev Wallet address can be zero. This means that the owner of the wallet\n   *      does not want to be paid directly without interaction, and instead wants users to\n   *      contact them, using the data encryption key, and arrange a payment.\n   * @dev v, r, s constitute `signer`'s signature on `msg.sender` (unless the wallet address\n   *      is 0x0 or msg.sender).\n   */\n  function setAccount(\n    string calldata name,\n    bytes calldata dataEncryptionKey,\n    address walletAddress,\n    uint8 v,\n    bytes32 r,\n    bytes32 s\n  ) external onlyBeneficiaryAndNotRevoked {\n    getAccounts().setAccount(name, dataEncryptionKey, walletAddress, v, r, s);\n  }\n\n  /**\n   * @notice A wrapper setter function for creating an account.\n   */\n  function createAccount() external onlyCanVote onlyBeneficiaryAndNotRevoked {\n    require(getAccounts().createAccount(), \"Account creation failed\");\n  }\n\n  /**\n   * @notice A wrapper setter function for the name of an account.\n   * @param name A string to set as the name of the account.\n   */\n  function setAccountName(string calldata name) external onlyBeneficiaryAndNotRevoked {\n    getAccounts().setName(name);\n  }\n\n  /**\n   * @notice A wrapper setter function for the wallet address of an account.\n   * @param walletAddress The wallet address to set for the account.\n   * @param v The recovery id of the incoming ECDSA signature.\n   * @param r Output value r of the ECDSA signature.\n   * @param s Output value s of the ECDSA signature.\n   * @dev Wallet address can be zero. This means that the owner of the wallet\n   *      does not want to be paid directly without interaction, and instead wants users to\n   *      contact them, using the data encryption key, and arrange a payment.\n   * @dev v, r, s constitute `signer`'s signature on `msg.sender` (unless the wallet address\n   *      is 0x0 or msg.sender).\n   */\n  function setAccountWalletAddress(address walletAddress, uint8 v, bytes32 r, bytes32 s)\n    external\n    onlyBeneficiaryAndNotRevoked\n  {\n    getAccounts().setWalletAddress(walletAddress, v, r, s);\n  }\n\n  /**\n   * @notice A wrapper setter function for the for the data encryption key\n   *         and version of an account.\n   * @param dataEncryptionKey Secp256k1 public key for data encryption.\n   *                          Preferably compressed.\n   */\n  function setAccountDataEncryptionKey(bytes calldata dataEncryptionKey)\n    external\n    onlyBeneficiaryAndNotRevoked\n  {\n    getAccounts().setAccountDataEncryptionKey(dataEncryptionKey);\n  }\n\n  /**\n   * @notice A wrapper setter function for the metadata of an account.\n   * @param metadataURL The URL to access the metadata..\n   */\n  function setAccountMetadataURL(string calldata metadataURL)\n    external\n    onlyBeneficiaryAndNotRevoked\n  {\n    getAccounts().setMetadataURL(metadataURL);\n  }\n\n  /**\n   * @notice Revokes `value` active votes for `group`.\n   * @param group The validator group to revoke votes from.\n   * @param value The number of votes to revoke.\n   * @param lesser The group receiving fewer votes than the group for which the vote was revoked,\n   *               or 0 if that group has the fewest votes of any validator group.\n   * @param greater The group receiving more votes than the group for which the vote was revoked,\n   *               or 0 if that group has the most votes of any validator group.\n   * @param index The index of the group in the account's voting list.\n   * @dev Fails if the account has not voted on a validator group.\n   */\n  function revokeActive(\n    address group,\n    uint256 value,\n    address lesser,\n    address greater,\n    uint256 index\n  ) external nonReentrant onlyWhenInProperState {\n    getElection().revokeActive(group, value, lesser, greater, index);\n  }\n\n  /**\n   * @notice Revokes `value` pending votes for `group`.\n   * @param group The validator group to revoke votes from.\n   * @param value The number of votes to revoke.\n   * @param lesser The group receiving fewer votes than the group for which the vote was revoked,\n   *               or 0 if that group has the fewest votes of any validator group.\n   * @param greater The group receiving more votes than the group for which the vote was revoked,\n   *                or 0 if that group has the most votes of any validator group.\n   * @param index The index of the group in the account's voting list.\n   * @dev Fails if the account has not voted on a validator group.\n   */\n  function revokePending(\n    address group,\n    uint256 value,\n    address lesser,\n    address greater,\n    uint256 index\n  ) external nonReentrant onlyWhenInProperState {\n    getElection().revokePending(group, value, lesser, greater, index);\n  }\n}\n",
  "sourcePath": "/Users/alex/celo/celo-monorepo/packages/protocol/contracts/governance/ReleaseGold.sol",
  "compiler": {
    "name": "solc",
    "version": "0.5.13+commit.5b0b510c.Emscripten.clang"
  },
  "schemaVersion": "3.0.23",
  "updatedAt": "2021-03-23T09:41:08.708Z",
  "devdoc": {
    "methods": {
      "authorizeAttestationSigner(address,uint8,bytes32,bytes32)": {
        "details": "The v,r and s signature should be signed by the authorized signer     key, with the ReleaseGold contract address as the message.",
        "params": {
          "r": "Output value r of the ECDSA signature.",
          "s": "Output value s of the ECDSA signature.",
          "signer": "The address of the signing key to authorize.",
          "v": "The recovery id of the incoming ECDSA signature."
        }
      },
      "authorizeValidatorSigner(address,uint8,bytes32,bytes32)": {
        "details": "The v,r and s signature should be signed by the authorized signer     key, with the ReleaseGold contract address as the message.",
        "params": {
          "r": "Output value r of the ECDSA signature.",
          "s": "Output value s of the ECDSA signature.",
          "signer": "The address of the signing key to authorize.",
          "v": "The recovery id of the incoming ECDSA signature."
        }
      },
      "authorizeValidatorSignerWithKeys(address,uint8,bytes32,bytes32,bytes,bytes,bytes)": {
        "details": "The v,r and s signature should be signed by the authorized signer     key, with the ReleaseGold contract address as the message.",
        "params": {
          "blsPop": "The BLS public key proof-of-possession, which consists of a signature on the  account address. 48 bytes.",
          "blsPublicKey": "The BLS public key that the validator is using for consensus, should pass  proof of possession. 96 bytes.",
          "ecdsaPublicKey": "The ECDSA public key corresponding to `signer`.",
          "r": "Output value r of the ECDSA signature.",
          "s": "Output value s of the ECDSA signature.",
          "signer": "The address of the signing key to authorize.",
          "v": "The recovery id of the incoming ECDSA signature."
        }
      },
      "authorizeValidatorSignerWithPublicKey(address,uint8,bytes32,bytes32,bytes)": {
        "details": "The v,r and s signature should be signed by the authorized signer     key, with the ReleaseGold contract address as the message.",
        "params": {
          "ecdsaPublicKey": "The ECDSA public key corresponding to `signer`.",
          "r": "Output value r of the ECDSA signature.",
          "s": "Output value s of the ECDSA signature.",
          "signer": "The address of the signing key to authorize.",
          "v": "The recovery id of the incoming ECDSA signature."
        }
      },
      "authorizeVoteSigner(address,uint8,bytes32,bytes32)": {
        "details": "The v,r and s signature should be signed by the authorized signer     key, with the ReleaseGold contract address as the message.",
        "params": {
          "r": "Output value r of the ECDSA signature.",
          "s": "Output value s of the ECDSA signature.",
          "signer": "The address of the signing key to authorize.",
          "v": "The recovery id of the incoming ECDSA signature."
        }
      },
      "expire()": {
        "details": "Only callable `EXPIRATION_TIME` after the final gold release."
      },
      "getCurrentReleasedTotalAmount()": {
        "details": "Calculates the total amount that has already released up to now.The returned amount may vary over time due to locked gold rewards.",
        "return": "The already released amount up to the point of call."
      },
      "getRemainingLockedBalance()": {
        "details": "The returned amount may vary over time due to locked gold rewards.",
        "return": "The remaining locked gold of the release schedule instance."
      },
      "getRemainingTotalBalance()": {
        "details": "The returned amount may vary over time due to locked gold rewards.",
        "return": "The remaining total released instance gold balance."
      },
      "getRemainingUnlockedBalance()": {
        "return": "The available unlocked release schedule instance gold balance."
      },
      "getTotalBalance()": {
        "details": "The returned amount may vary over time due to locked gold rewards.",
        "return": "The total released instance gold balance."
      },
      "initialize(uint256,uint256,uint256,uint256,uint256,bool,address,address,address,bool,uint256,bool,bool,address)": {
        "params": {
          "_beneficiary": "Address of the beneficiary to whom released tokens are transferred.",
          "_canValidate": "If this schedule's gold can be used for validating.",
          "_canVote": "If this schedule's gold can be used for voting.",
          "_refundAddress": "Address that receives refunded funds if contract is revoked.                      0x0 if contract is not revocable.",
          "_releaseOwner": "Address capable of revoking, setting the liquidity provision                     and setting the withdrawal amount.                     0x0 if grant is not subject to these operations.",
          "amountReleasedPerPeriod": "The released gold amount per period.",
          "initialDistributionRatio": "Amount in range [0, 1000] (3 significant figures)                                indicating % of total balance available for distribution.",
          "numReleasePeriods": "Number of releasing periods.",
          "registryAddress": "Address of the deployed contracts registry.",
          "releaseCliffTime": "Duration (in seconds) after `releaseStartTime` of the golds' cliff.",
          "releasePeriod": "Duration (in seconds) of each release period.",
          "releaseStartTime": "The time (in Unix time) at which point releasing starts.",
          "revocable": "Whether the release schedule is revocable or not.",
          "subjectToLiquidityProvision": "If this schedule is subject to a liquidity provision."
        }
      },
      "isOwner()": {
        "details": "Returns true if the caller is the current owner."
      },
      "isRevoked()": {
        "return": "True if instance revoked."
      },
      "lockGold(uint256)": {
        "params": {
          "value": "The value of gold to be locked."
        }
      },
      "owner()": {
        "details": "Returns the address of the current owner."
      },
      "relockGold(uint256,uint256)": {
        "params": {
          "index": "The index of the pending locked gold withdrawal.",
          "value": "The value of gold to be relocked for the release schedule instance."
        }
      },
      "renounceOwnership()": {
        "details": "Leaves the contract without owner. It will not be possible to call `onlyOwner` functions anymore. Can only be called by the current owner.     * NOTE: Renouncing ownership will leave the contract without an owner, thereby removing any functionality that is only available to the owner."
      },
      "revokeActive(address,uint256,address,address,uint256)": {
        "details": "Fails if the account has not voted on a validator group.",
        "params": {
          "greater": "The group receiving more votes than the group for which the vote was revoked,              or 0 if that group has the most votes of any validator group.",
          "group": "The validator group to revoke votes from.",
          "index": "The index of the group in the account's voting list.",
          "lesser": "The group receiving fewer votes than the group for which the vote was revoked,              or 0 if that group has the fewest votes of any validator group.",
          "value": "The number of votes to revoke."
        }
      },
      "revokePending(address,uint256,address,address,uint256)": {
        "details": "Fails if the account has not voted on a validator group.",
        "params": {
          "greater": "The group receiving more votes than the group for which the vote was revoked,               or 0 if that group has the most votes of any validator group.",
          "group": "The validator group to revoke votes from.",
          "index": "The index of the group in the account's voting list.",
          "lesser": "The group receiving fewer votes than the group for which the vote was revoked,              or 0 if that group has the fewest votes of any validator group.",
          "value": "The number of votes to revoke."
        }
      },
      "setAccount(string,bytes,address,uint8,bytes32,bytes32)": {
        "details": "Wallet address can be zero. This means that the owner of the wallet     does not want to be paid directly without interaction, and instead wants users to     contact them, using the data encryption key, and arrange a payment.v, r, s constitute `signer`'s signature on `msg.sender` (unless the wallet address     is 0x0 or msg.sender).",
        "params": {
          "dataEncryptionKey": "secp256k1 public key for data encryption. Preferably compressed.",
          "name": "A string to set as the name of the account.",
          "r": "Output value r of the ECDSA signature.",
          "s": "Output value s of the ECDSA signature.",
          "v": "The recovery id of the incoming ECDSA signature.",
          "walletAddress": "The wallet address to set for the account."
        }
      },
      "setAccountDataEncryptionKey(bytes)": {
        "params": {
          "dataEncryptionKey": "Secp256k1 public key for data encryption.                         Preferably compressed."
        }
      },
      "setAccountMetadataURL(string)": {
        "params": {
          "metadataURL": "The URL to access the metadata.."
        }
      },
      "setAccountName(string)": {
        "params": {
          "name": "A string to set as the name of the account."
        }
      },
      "setAccountWalletAddress(address,uint8,bytes32,bytes32)": {
        "details": "Wallet address can be zero. This means that the owner of the wallet     does not want to be paid directly without interaction, and instead wants users to     contact them, using the data encryption key, and arrange a payment.v, r, s constitute `signer`'s signature on `msg.sender` (unless the wallet address     is 0x0 or msg.sender).",
        "params": {
          "r": "Output value r of the ECDSA signature.",
          "s": "Output value s of the ECDSA signature.",
          "v": "The recovery id of the incoming ECDSA signature.",
          "walletAddress": "The wallet address to set for the account."
        }
      },
      "setBeneficiary(address)": {
        "params": {
          "newBeneficiary": "The address of the new beneficiary"
        }
      },
      "setCanExpire(bool)": {
        "params": {
          "_canExpire": "If the contract is expirable."
        }
      },
      "setMaxDistribution(uint256)": {
        "params": {
          "distributionRatio": "Amount in range [0, 1000] (3 significant figures)                         indicating % of total balance available for distribution."
        }
      },
      "setRegistry(address)": {
        "params": {
          "registryAddress": "The address of a registry contract for routing to other contracts."
        }
      },
      "transferOwnership(address)": {
        "details": "Transfers ownership of the contract to a new account (`newOwner`). Can only be called by the current owner."
      },
      "unlockGold(uint256)": {
        "params": {
          "value": "The value of gold to be unlocked for the release schedule instance."
        }
      },
      "withdraw(uint256)": {
        "params": {
          "amount": "The requested gold amount."
        }
      },
      "withdrawLockedGold(uint256)": {
        "details": "The amount shall be withdrawn back to the release schedule instance.",
        "params": {
          "index": "The index of the pending locked gold withdrawal."
        }
      }
    }
  },
  "userdoc": {
    "methods": {
      "authorizeAttestationSigner(address,uint8,bytes32,bytes32)": {
        "notice": "A wrapper function for the authorize attestation signer account method."
      },
      "authorizeValidatorSigner(address,uint8,bytes32,bytes32)": {
        "notice": "A wrapper function for the authorize validator signer account method."
      },
      "authorizeValidatorSignerWithKeys(address,uint8,bytes32,bytes32,bytes,bytes,bytes)": {
        "notice": "A wrapper function for the authorize validator signer with keys account method."
      },
      "authorizeValidatorSignerWithPublicKey(address,uint8,bytes32,bytes32,bytes)": {
        "notice": "A wrapper function for the authorize validator signer with public key account method."
      },
      "authorizeVoteSigner(address,uint8,bytes32,bytes32)": {
        "notice": "A wrapper function for the authorize vote signer account method."
      },
      "createAccount()": {
        "notice": "A wrapper setter function for creating an account."
      },
      "expire()": {
        "notice": "Mark the contract as expired, freeing all remaining gold for refund to `refundAddress`"
      },
      "getRemainingLockedBalance()": {
        "notice": "Calculates remaining locked gold balance in the release schedule instance.        The returned amount also includes pending withdrawals to maintain consistent releases.        Return 0 if address of caller is not an account."
      },
      "getRemainingTotalBalance()": {
        "notice": "Calculates the sum of locked and unlocked gold in the release schedule instance."
      },
      "getRemainingUnlockedBalance()": {
        "notice": "Calculates remaining unlocked gold balance in the release schedule instance."
      },
      "getTotalBalance()": {
        "notice": "Calculates the total balance of the release schedule instance including withdrawals."
      },
      "initialize(uint256,uint256,uint256,uint256,uint256,bool,address,address,address,bool,uint256,bool,bool,address)": {
        "notice": "A constructor for initialising a new instance of a Releasing Schedule contract."
      },
      "isRevoked()": {
        "notice": "Returns if the release schedule has been revoked or not."
      },
      "lockGold(uint256)": {
        "notice": "A wrapper function for the lock gold method."
      },
      "refundAndFinalize()": {
        "notice": "Refund the releaseOwner and beneficiary after the release schedule has been revoked."
      },
      "relockGold(uint256,uint256)": {
        "notice": "A wrapper function for the relock locked gold method function."
      },
      "revoke()": {
        "notice": "Revoke the future release schedule."
      },
      "revokeActive(address,uint256,address,address,uint256)": {
        "notice": "Revokes `value` active votes for `group`."
      },
      "revokePending(address,uint256,address,address,uint256)": {
        "notice": "Revokes `value` pending votes for `group`."
      },
      "setAccount(string,bytes,address,uint8,bytes32,bytes32)": {
        "notice": "A convenience wrapper setter for the name, dataEncryptionKey        and wallet address for an account."
      },
      "setAccountDataEncryptionKey(bytes)": {
        "notice": "A wrapper setter function for the for the data encryption key        and version of an account."
      },
      "setAccountMetadataURL(string)": {
        "notice": "A wrapper setter function for the metadata of an account."
      },
      "setAccountName(string)": {
        "notice": "A wrapper setter function for the name of an account."
      },
      "setAccountWalletAddress(address,uint8,bytes32,bytes32)": {
        "notice": "A wrapper setter function for the wallet address of an account."
      },
      "setBeneficiary(address)": {
        "notice": "Sets the beneficiary of the instance"
      },
      "setCanExpire(bool)": {
        "notice": "Controls if the contract can be expired."
      },
      "setLiquidityProvision()": {
        "notice": "Controls if the liquidity provision has been met, allowing gold to be withdrawn."
      },
      "setMaxDistribution(uint256)": {
        "notice": "Controls the maximum distribution ratio.        Calculates `distributionRatio`/1000 of current `totalBalance()`        and sets this value as the maximum allowed gold to be currently withdrawn."
      },
      "setRegistry(address)": {
        "notice": "Updates the address pointing to a Registry contract."
      },
      "transfer(address,uint256)": {
        "notice": "Wrapper function for stable token transfer function."
      },
      "unlockGold(uint256)": {
        "notice": "A wrapper function for the unlock gold method function."
      },
      "withdraw(uint256)": {
        "notice": "Transfers gold from this release schedule instance to the beneficiary."
      },
      "withdrawLockedGold(uint256)": {
        "notice": "A wrapper function for the withdraw locked gold method function."
      }
    }
  }
}